{
  "_format": "hh-sol-artifact-1",
  "contractName": "BridgeL2SovereignChain",
  "sourceName": "contracts/v2/sovereignChains/BridgeL2SovereignChain.sol",
  "abi": [
    {
      "inputs": [],
      "stateMutability": "nonpayable",
      "type": "constructor"
    },
    {
      "inputs": [
        {
          "internalType": "address",
          "name": "target",
          "type": "address"
        }
      ],
      "name": "AddressEmptyCode",
      "type": "error"
    },
    {
      "inputs": [
        {
          "internalType": "address",
          "name": "account",
          "type": "address"
        }
      ],
      "name": "AddressInsufficientBalance",
      "type": "error"
    },
    {
      "inputs": [],
      "name": "AlreadyClaimed",
      "type": "error"
    },
    {
      "inputs": [],
      "name": "AmountDoesNotMatchMsgValue",
      "type": "error"
    },
    {
      "inputs": [],
      "name": "BridgeAddressNotAllowed",
      "type": "error"
    },
    {
      "inputs": [],
      "name": "ClaimNotSet",
      "type": "error"
    },
    {
      "inputs": [],
      "name": "DestinationNetworkInvalid",
      "type": "error"
    },
    {
      "inputs": [],
      "name": "EmergencyStateNotAllowed",
      "type": "error"
    },
    {
      "inputs": [],
      "name": "EtherTransferFailed",
      "type": "error"
    },
    {
      "inputs": [],
      "name": "FailedInnerCall",
      "type": "error"
    },
    {
      "inputs": [],
      "name": "FailedProxyDeployment",
      "type": "error"
    },
    {
      "inputs": [],
      "name": "GasTokenNetworkMustBeZeroOnEther",
      "type": "error"
    },
    {
      "inputs": [],
      "name": "GlobalExitRootInvalid",
      "type": "error"
    },
    {
      "inputs": [],
      "name": "InputArraysLengthMismatch",
      "type": "error"
    },
    {
      "inputs": [],
      "name": "InvalidInitializeFunction",
      "type": "error"
    },
    {
      "inputs": [
        {
          "internalType": "address",
          "name": "proxyAdmin",
          "type": "address"
        }
      ],
      "name": "InvalidProxyAdmin",
      "type": "error"
    },
    {
      "inputs": [],
      "name": "InvalidSmtProof",
      "type": "error"
    },
    {
      "inputs": [],
      "name": "InvalidSovereignWETHAddressParams",
      "type": "error"
    },
    {
      "inputs": [],
      "name": "InvalidZeroAddress",
      "type": "error"
    },
    {
      "inputs": [],
      "name": "InvalidZeroNetworkID",
      "type": "error"
    },
    {
      "inputs": [
        {
          "internalType": "address",
          "name": "proxyAdmin",
          "type": "address"
        }
      ],
      "name": "InvalidZeroProxyAdminOwner",
      "type": "error"
    },
    {
      "inputs": [
        {
          "internalType": "uint32",
          "name": "originNetwork",
          "type": "uint32"
        },
        {
          "internalType": "address",
          "name": "originTokenAddress",
          "type": "address"
        },
        {
          "internalType": "uint256",
          "name": "amount",
          "type": "uint256"
        },
        {
          "internalType": "uint256",
          "name": "localBalanceTreeAmount",
          "type": "uint256"
        }
      ],
      "name": "LocalBalanceTreeOverflow",
      "type": "error"
    },
    {
      "inputs": [
        {
          "internalType": "uint32",
          "name": "originNetwork",
          "type": "uint32"
        },
        {
          "internalType": "address",
          "name": "originTokenAddress",
          "type": "address"
        },
        {
          "internalType": "uint256",
          "name": "amount",
          "type": "uint256"
        },
        {
          "internalType": "uint256",
          "name": "localBalanceTreeAmount",
          "type": "uint256"
        }
      ],
      "name": "LocalBalanceTreeUnderflow",
      "type": "error"
    },
    {
      "inputs": [],
      "name": "MerkleTreeFull",
      "type": "error"
    },
    {
      "inputs": [],
      "name": "MessageFailed",
      "type": "error"
    },
    {
      "inputs": [],
      "name": "MsgValueNotZero",
      "type": "error"
    },
    {
      "inputs": [],
      "name": "NativeTokenIsEther",
      "type": "error"
    },
    {
      "inputs": [],
      "name": "NoValueInMessagesOnGasTokenNetworks",
      "type": "error"
    },
    {
      "inputs": [],
      "name": "NotValidAmount",
      "type": "error"
    },
    {
      "inputs": [],
      "name": "NotValidOwner",
      "type": "error"
    },
    {
      "inputs": [],
      "name": "NotValidSignature",
      "type": "error"
    },
    {
      "inputs": [],
      "name": "NotValidSpender",
      "type": "error"
    },
    {
      "inputs": [],
      "name": "OnlyBridgeManager",
      "type": "error"
    },
    {
      "inputs": [],
      "name": "OnlyEmergencyBridgePauser",
      "type": "error"
    },
    {
      "inputs": [],
      "name": "OnlyEmergencyBridgeUnpauser",
      "type": "error"
    },
    {
      "inputs": [],
      "name": "OnlyEmergencyState",
      "type": "error"
    },
    {
      "inputs": [],
      "name": "OnlyGlobalExitRootRemover",
      "type": "error"
    },
    {
      "inputs": [],
      "name": "OnlyNotEmergencyState",
      "type": "error"
    },
    {
      "inputs": [],
      "name": "OnlyPendingEmergencyBridgePauser",
      "type": "error"
    },
    {
      "inputs": [],
      "name": "OnlyPendingEmergencyBridgeUnpauser",
      "type": "error"
    },
    {
      "inputs": [],
      "name": "OnlyPendingProxiedTokensManager",
      "type": "error"
    },
    {
      "inputs": [],
      "name": "OnlyProxiedTokensManager",
      "type": "error"
    },
    {
      "inputs": [],
      "name": "OnlyRollupManager",
      "type": "error"
    },
    {
      "inputs": [],
      "name": "OriginNetworkInvalid",
      "type": "error"
    },
    {
      "inputs": [
        {
          "internalType": "address",
          "name": "token",
          "type": "address"
        }
      ],
      "name": "SafeERC20FailedOperation",
      "type": "error"
    },
    {
      "inputs": [],
      "name": "TokenAlreadyMapped",
      "type": "error"
    },
    {
      "inputs": [],
      "name": "TokenAlreadyUpdated",
      "type": "error"
    },
    {
      "inputs": [],
      "name": "TokenNotMapped",
      "type": "error"
    },
    {
      "inputs": [],
      "name": "TokenNotRemapped",
      "type": "error"
    },
    {
      "inputs": [],
      "name": "WETHRemappingNotSupportedOnGasTokenNetworks",
      "type": "error"
    },
    {
      "anonymous": false,
      "inputs": [
        {
          "indexed": false,
          "internalType": "address",
          "name": "oldEmergencyBridgePauser",
          "type": "address"
        },
        {
          "indexed": false,
          "internalType": "address",
          "name": "newEmergencyBridgePauser",
          "type": "address"
        }
      ],
      "name": "AcceptEmergencyBridgePauserRole",
      "type": "event"
    },
    {
      "anonymous": false,
      "inputs": [
        {
          "indexed": false,
          "internalType": "address",
          "name": "oldEmergencyBridgeUnpauser",
          "type": "address"
        },
        {
          "indexed": false,
          "internalType": "address",
          "name": "newEmergencyBridgeUnpauser",
          "type": "address"
        }
      ],
      "name": "AcceptEmergencyBridgeUnpauserRole",
      "type": "event"
    },
    {
      "anonymous": false,
      "inputs": [
        {
          "indexed": false,
          "internalType": "address",
          "name": "oldProxiedTokensManager",
          "type": "address"
        },
        {
          "indexed": false,
          "internalType": "address",
          "name": "newProxiedTokensManager",
          "type": "address"
        }
      ],
      "name": "AcceptProxiedTokensManagerRole",
      "type": "event"
    },
    {
      "anonymous": false,
      "inputs": [
        {
          "indexed": false,
          "internalType": "uint8",
          "name": "leafType",
          "type": "uint8"
        },
        {
          "indexed": false,
          "internalType": "uint32",
          "name": "originNetwork",
          "type": "uint32"
        },
        {
          "indexed": false,
          "internalType": "address",
          "name": "originAddress",
          "type": "address"
        },
        {
          "indexed": false,
          "internalType": "uint32",
          "name": "destinationNetwork",
          "type": "uint32"
        },
        {
          "indexed": false,
          "internalType": "address",
          "name": "destinationAddress",
          "type": "address"
        },
        {
          "indexed": false,
          "internalType": "uint256",
          "name": "amount",
          "type": "uint256"
        },
        {
          "indexed": false,
          "internalType": "bytes",
          "name": "metadata",
          "type": "bytes"
        },
        {
          "indexed": false,
          "internalType": "uint32",
          "name": "depositCount",
          "type": "uint32"
        }
      ],
      "name": "BridgeEvent",
      "type": "event"
    },
    {
      "anonymous": false,
      "inputs": [
        {
          "indexed": false,
          "internalType": "uint256",
          "name": "globalIndex",
          "type": "uint256"
        },
        {
          "indexed": false,
          "internalType": "uint32",
          "name": "originNetwork",
          "type": "uint32"
        },
        {
          "indexed": false,
          "internalType": "address",
          "name": "originAddress",
          "type": "address"
        },
        {
          "indexed": false,
          "internalType": "address",
          "name": "destinationAddress",
          "type": "address"
        },
        {
          "indexed": false,
          "internalType": "uint256",
          "name": "amount",
          "type": "uint256"
        }
      ],
      "name": "ClaimEvent",
      "type": "event"
    },
    {
      "anonymous": false,
      "inputs": [],
      "name": "EmergencyStateActivated",
      "type": "event"
    },
    {
      "anonymous": false,
      "inputs": [],
      "name": "EmergencyStateDeactivated",
      "type": "event"
    },
    {
      "anonymous": false,
      "inputs": [
        {
          "indexed": false,
          "internalType": "uint8",
          "name": "version",
          "type": "uint8"
        }
      ],
      "name": "Initialized",
      "type": "event"
    },
    {
      "anonymous": false,
      "inputs": [
        {
          "indexed": false,
          "internalType": "address",
          "name": "sender",
          "type": "address"
        },
        {
          "indexed": false,
          "internalType": "address",
          "name": "legacyTokenAddress",
          "type": "address"
        },
        {
          "indexed": false,
          "internalType": "address",
          "name": "updatedTokenAddress",
          "type": "address"
        },
        {
          "indexed": false,
          "internalType": "uint256",
          "name": "amount",
          "type": "uint256"
        }
      ],
      "name": "MigrateLegacyToken",
      "type": "event"
    },
    {
      "anonymous": false,
      "inputs": [
        {
          "indexed": false,
          "internalType": "uint32",
          "name": "originNetwork",
          "type": "uint32"
        },
        {
          "indexed": false,
          "internalType": "address",
          "name": "originTokenAddress",
          "type": "address"
        },
        {
          "indexed": false,
          "internalType": "address",
          "name": "wrappedTokenAddress",
          "type": "address"
        },
        {
          "indexed": false,
          "internalType": "bytes",
          "name": "metadata",
          "type": "bytes"
        }
      ],
      "name": "NewWrappedToken",
      "type": "event"
    },
    {
      "anonymous": false,
      "inputs": [
        {
          "indexed": false,
          "internalType": "address",
          "name": "sovereignTokenAddress",
          "type": "address"
        }
      ],
      "name": "RemoveLegacySovereignTokenAddress",
      "type": "event"
    },
    {
      "anonymous": false,
      "inputs": [
        {
          "indexed": false,
          "internalType": "address",
          "name": "bridgeManager",
          "type": "address"
        }
      ],
      "name": "SetBridgeManager",
      "type": "event"
    },
    {
      "anonymous": false,
      "inputs": [
        {
          "indexed": false,
          "internalType": "bytes32",
          "name": "tokenInfoHash",
          "type": "bytes32"
        },
        {
          "indexed": false,
          "internalType": "uint256",
          "name": "amount",
          "type": "uint256"
        }
      ],
      "name": "SetInitialLocalBalanceTreeAmount",
      "type": "event"
    },
    {
      "anonymous": false,
      "inputs": [
        {
          "indexed": false,
          "internalType": "uint32",
          "name": "originNetwork",
          "type": "uint32"
        },
        {
          "indexed": false,
          "internalType": "address",
          "name": "originTokenAddress",
          "type": "address"
        },
        {
          "indexed": false,
          "internalType": "address",
          "name": "sovereignTokenAddress",
          "type": "address"
        },
        {
          "indexed": false,
          "internalType": "bool",
          "name": "isNotMintable",
          "type": "bool"
        }
      ],
      "name": "SetSovereignTokenAddress",
      "type": "event"
    },
    {
      "anonymous": false,
      "inputs": [
        {
          "indexed": false,
          "internalType": "address",
          "name": "sovereignWETHTokenAddress",
          "type": "address"
        },
        {
          "indexed": false,
          "internalType": "bool",
          "name": "isNotMintable",
          "type": "bool"
        }
      ],
      "name": "SetSovereignWETHAddress",
      "type": "event"
    },
    {
      "anonymous": false,
      "inputs": [
        {
          "indexed": false,
          "internalType": "address",
          "name": "currentEmergencyBridgePauser",
          "type": "address"
        },
        {
          "indexed": false,
          "internalType": "address",
          "name": "newEmergencyBridgePauser",
          "type": "address"
        }
      ],
      "name": "TransferEmergencyBridgePauserRole",
      "type": "event"
    },
    {
      "anonymous": false,
      "inputs": [
        {
          "indexed": false,
          "internalType": "address",
          "name": "currentEmergencyBridgeUnpauser",
          "type": "address"
        },
        {
          "indexed": false,
          "internalType": "address",
          "name": "newEmergencyBridgeUnpauser",
          "type": "address"
        }
      ],
      "name": "TransferEmergencyBridgeUnpauserRole",
      "type": "event"
    },
    {
      "anonymous": false,
      "inputs": [
        {
          "indexed": false,
          "internalType": "address",
          "name": "currentProxiedTokensManager",
          "type": "address"
        },
        {
          "indexed": false,
          "internalType": "address",
          "name": "newProxiedTokensManager",
          "type": "address"
        }
      ],
      "name": "TransferProxiedTokensManagerRole",
      "type": "event"
    },
    {
      "anonymous": false,
      "inputs": [
        {
          "indexed": false,
          "internalType": "bytes32",
          "name": "claimedGlobalIndex",
          "type": "bytes32"
        },
        {
          "indexed": false,
          "internalType": "bytes32",
          "name": "newClaimedGlobalIndexHashChain",
          "type": "bytes32"
        }
      ],
      "name": "UpdatedClaimedGlobalIndexHashChain",
      "type": "event"
    },
    {
      "anonymous": false,
      "inputs": [
        {
          "indexed": false,
          "internalType": "bytes32",
          "name": "unsetGlobalIndex",
          "type": "bytes32"
        },
        {
          "indexed": false,
          "internalType": "bytes32",
          "name": "newUnsetGlobalIndexHashChain",
          "type": "bytes32"
        }
      ],
      "name": "UpdatedUnsetGlobalIndexHashChain",
      "type": "event"
    },
    {
      "inputs": [],
      "name": "BRIDGE_SOVEREIGN_VERSION",
      "outputs": [
        {
          "internalType": "string",
          "name": "",
          "type": "string"
        }
      ],
      "stateMutability": "view",
      "type": "function"
    },
    {
      "inputs": [],
      "name": "BRIDGE_VERSION",
      "outputs": [
        {
          "internalType": "string",
          "name": "",
          "type": "string"
        }
      ],
      "stateMutability": "view",
      "type": "function"
    },
    {
      "inputs": [],
      "name": "INIT_BYTECODE_TRANSPARENT_PROXY",
      "outputs": [
        {
          "internalType": "bytes",
          "name": "",
          "type": "bytes"
        }
      ],
      "stateMutability": "view",
      "type": "function"
    },
    {
      "inputs": [],
      "name": "WETHToken",
      "outputs": [
        {
          "internalType": "contract ITokenWrappedBridgeUpgradeable",
          "name": "",
          "type": "address"
        }
      ],
      "stateMutability": "view",
      "type": "function"
    },
    {
      "inputs": [],
      "name": "acceptEmergencyBridgePauserRole",
      "outputs": [],
      "stateMutability": "nonpayable",
      "type": "function"
    },
    {
      "inputs": [],
      "name": "acceptEmergencyBridgeUnpauserRole",
      "outputs": [],
      "stateMutability": "nonpayable",
      "type": "function"
    },
    {
      "inputs": [],
      "name": "acceptProxiedTokensManagerRole",
      "outputs": [],
      "stateMutability": "nonpayable",
      "type": "function"
    },
    {
      "inputs": [],
      "name": "activateEmergencyState",
      "outputs": [],
      "stateMutability": "nonpayable",
      "type": "function"
    },
    {
      "inputs": [
        {
          "internalType": "uint32",
          "name": "destinationNetwork",
          "type": "uint32"
        },
        {
          "internalType": "address",
          "name": "destinationAddress",
          "type": "address"
        },
        {
          "internalType": "uint256",
          "name": "amount",
          "type": "uint256"
        },
        {
          "internalType": "address",
          "name": "token",
          "type": "address"
        },
        {
          "internalType": "bool",
          "name": "forceUpdateGlobalExitRoot",
          "type": "bool"
        },
        {
          "internalType": "bytes",
          "name": "permitData",
          "type": "bytes"
        }
      ],
      "name": "bridgeAsset",
      "outputs": [],
      "stateMutability": "payable",
      "type": "function"
    },
    {
      "inputs": [],
      "name": "bridgeManager",
      "outputs": [
        {
          "internalType": "address",
          "name": "",
          "type": "address"
        }
      ],
      "stateMutability": "view",
      "type": "function"
    },
    {
      "inputs": [
        {
          "internalType": "uint32",
          "name": "destinationNetwork",
          "type": "uint32"
        },
        {
          "internalType": "address",
          "name": "destinationAddress",
          "type": "address"
        },
        {
          "internalType": "bool",
          "name": "forceUpdateGlobalExitRoot",
          "type": "bool"
        },
        {
          "internalType": "bytes",
          "name": "metadata",
          "type": "bytes"
        }
      ],
      "name": "bridgeMessage",
      "outputs": [],
      "stateMutability": "payable",
      "type": "function"
    },
    {
      "inputs": [
        {
          "internalType": "uint32",
          "name": "destinationNetwork",
          "type": "uint32"
        },
        {
          "internalType": "address",
          "name": "destinationAddress",
          "type": "address"
        },
        {
          "internalType": "uint256",
          "name": "amountWETH",
          "type": "uint256"
        },
        {
          "internalType": "bool",
          "name": "forceUpdateGlobalExitRoot",
          "type": "bool"
        },
        {
          "internalType": "bytes",
          "name": "metadata",
          "type": "bytes"
        }
      ],
      "name": "bridgeMessageWETH",
      "outputs": [],
      "stateMutability": "nonpayable",
      "type": "function"
    },
    {
      "inputs": [
        {
          "internalType": "bytes32",
          "name": "leafHash",
          "type": "bytes32"
        },
        {
          "internalType": "bytes32[32]",
          "name": "smtProof",
          "type": "bytes32[32]"
        },
        {
          "internalType": "uint32",
          "name": "index",
          "type": "uint32"
        }
      ],
      "name": "calculateRoot",
      "outputs": [
        {
          "internalType": "bytes32",
          "name": "",
          "type": "bytes32"
        }
      ],
      "stateMutability": "pure",
      "type": "function"
    },
    {
      "inputs": [
        {
          "internalType": "bytes32[32]",
          "name": "smtProofLocalExitRoot",
          "type": "bytes32[32]"
        },
        {
          "internalType": "bytes32[32]",
          "name": "smtProofRollupExitRoot",
          "type": "bytes32[32]"
        },
        {
          "internalType": "uint256",
          "name": "globalIndex",
          "type": "uint256"
        },
        {
          "internalType": "bytes32",
          "name": "mainnetExitRoot",
          "type": "bytes32"
        },
        {
          "internalType": "bytes32",
          "name": "rollupExitRoot",
          "type": "bytes32"
        },
        {
          "internalType": "uint32",
          "name": "originNetwork",
          "type": "uint32"
        },
        {
          "internalType": "address",
          "name": "originTokenAddress",
          "type": "address"
        },
        {
          "internalType": "uint32",
          "name": "destinationNetwork",
          "type": "uint32"
        },
        {
          "internalType": "address",
          "name": "destinationAddress",
          "type": "address"
        },
        {
          "internalType": "uint256",
          "name": "amount",
          "type": "uint256"
        },
        {
          "internalType": "bytes",
          "name": "metadata",
          "type": "bytes"
        }
      ],
      "name": "claimAsset",
      "outputs": [],
      "stateMutability": "nonpayable",
      "type": "function"
    },
    {
      "inputs": [
        {
          "internalType": "bytes32[32]",
          "name": "smtProofLocalExitRoot",
          "type": "bytes32[32]"
        },
        {
          "internalType": "bytes32[32]",
          "name": "smtProofRollupExitRoot",
          "type": "bytes32[32]"
        },
        {
          "internalType": "uint256",
          "name": "globalIndex",
          "type": "uint256"
        },
        {
          "internalType": "bytes32",
          "name": "mainnetExitRoot",
          "type": "bytes32"
        },
        {
          "internalType": "bytes32",
          "name": "rollupExitRoot",
          "type": "bytes32"
        },
        {
          "internalType": "uint32",
          "name": "originNetwork",
          "type": "uint32"
        },
        {
          "internalType": "address",
          "name": "originAddress",
          "type": "address"
        },
        {
          "internalType": "uint32",
          "name": "destinationNetwork",
          "type": "uint32"
        },
        {
          "internalType": "address",
          "name": "destinationAddress",
          "type": "address"
        },
        {
          "internalType": "uint256",
          "name": "amount",
          "type": "uint256"
        },
        {
          "internalType": "bytes",
          "name": "metadata",
          "type": "bytes"
        }
      ],
      "name": "claimMessage",
      "outputs": [],
      "stateMutability": "nonpayable",
      "type": "function"
    },
    {
      "inputs": [
        {
          "internalType": "uint256",
          "name": "",
          "type": "uint256"
        }
      ],
      "name": "claimedBitMap",
      "outputs": [
        {
          "internalType": "uint256",
          "name": "",
          "type": "uint256"
        }
      ],
      "stateMutability": "view",
      "type": "function"
    },
    {
      "inputs": [],
      "name": "claimedGlobalIndexHashChain",
      "outputs": [
        {
          "internalType": "bytes32",
          "name": "",
          "type": "bytes32"
        }
      ],
      "stateMutability": "view",
      "type": "function"
    },
    {
      "inputs": [
        {
          "internalType": "uint32",
          "name": "originNetwork",
          "type": "uint32"
        },
        {
          "internalType": "address",
          "name": "originTokenAddress",
          "type": "address"
        }
      ],
      "name": "computeTokenProxyAddress",
      "outputs": [
        {
          "internalType": "address",
          "name": "",
          "type": "address"
        }
      ],
      "stateMutability": "view",
      "type": "function"
    },
    {
      "inputs": [],
      "name": "deactivateEmergencyState",
      "outputs": [],
      "stateMutability": "nonpayable",
      "type": "function"
    },
    {
      "inputs": [
        {
          "internalType": "uint32",
          "name": "originNetwork",
          "type": "uint32"
        },
        {
          "internalType": "address",
          "name": "originTokenAddress",
          "type": "address"
        },
        {
          "internalType": "bool",
          "name": "isNotMintable",
          "type": "bool"
        }
      ],
      "name": "deployWrappedTokenAndRemap",
      "outputs": [],
      "stateMutability": "nonpayable",
      "type": "function"
    },
    {
      "inputs": [],
      "name": "depositCount",
      "outputs": [
        {
          "internalType": "uint256",
          "name": "",
          "type": "uint256"
        }
      ],
      "stateMutability": "view",
      "type": "function"
    },
    {
      "inputs": [],
      "name": "emergencyBridgePauser",
      "outputs": [
        {
          "internalType": "address",
          "name": "",
          "type": "address"
        }
      ],
      "stateMutability": "view",
      "type": "function"
    },
    {
      "inputs": [],
      "name": "emergencyBridgeUnpauser",
      "outputs": [
        {
          "internalType": "address",
          "name": "",
          "type": "address"
        }
      ],
      "stateMutability": "view",
      "type": "function"
    },
    {
      "inputs": [],
      "name": "gasTokenAddress",
      "outputs": [
        {
          "internalType": "address",
          "name": "",
          "type": "address"
        }
      ],
      "stateMutability": "view",
      "type": "function"
    },
    {
      "inputs": [],
      "name": "gasTokenMetadata",
      "outputs": [
        {
          "internalType": "bytes",
          "name": "",
          "type": "bytes"
        }
      ],
      "stateMutability": "view",
      "type": "function"
    },
    {
      "inputs": [],
      "name": "gasTokenNetwork",
      "outputs": [
        {
          "internalType": "uint32",
          "name": "",
          "type": "uint32"
        }
      ],
      "stateMutability": "view",
      "type": "function"
    },
    {
      "inputs": [
        {
          "internalType": "uint8",
          "name": "leafType",
          "type": "uint8"
        },
        {
          "internalType": "uint32",
          "name": "originNetwork",
          "type": "uint32"
        },
        {
          "internalType": "address",
          "name": "originAddress",
          "type": "address"
        },
        {
          "internalType": "uint32",
          "name": "destinationNetwork",
          "type": "uint32"
        },
        {
          "internalType": "address",
          "name": "destinationAddress",
          "type": "address"
        },
        {
          "internalType": "uint256",
          "name": "amount",
          "type": "uint256"
        },
        {
          "internalType": "bytes32",
          "name": "metadataHash",
          "type": "bytes32"
        }
      ],
      "name": "getLeafValue",
      "outputs": [
        {
          "internalType": "bytes32",
          "name": "",
          "type": "bytes32"
        }
      ],
      "stateMutability": "pure",
      "type": "function"
    },
    {
      "inputs": [],
      "name": "getProxiedTokensManager",
      "outputs": [
        {
          "internalType": "address",
          "name": "",
          "type": "address"
        }
      ],
      "stateMutability": "view",
      "type": "function"
    },
    {
      "inputs": [],
      "name": "getRoot",
      "outputs": [
        {
          "internalType": "bytes32",
          "name": "",
          "type": "bytes32"
        }
      ],
      "stateMutability": "view",
      "type": "function"
    },
    {
      "inputs": [
        {
          "internalType": "address",
          "name": "token",
          "type": "address"
        }
      ],
      "name": "getTokenMetadata",
      "outputs": [
        {
          "internalType": "bytes",
          "name": "",
          "type": "bytes"
        }
      ],
      "stateMutability": "view",
      "type": "function"
    },
    {
      "inputs": [
        {
          "internalType": "uint32",
          "name": "originNetwork",
          "type": "uint32"
        },
        {
          "internalType": "address",
          "name": "originTokenAddress",
          "type": "address"
        }
      ],
      "name": "getTokenWrappedAddress",
      "outputs": [
        {
          "internalType": "address",
          "name": "",
          "type": "address"
        }
      ],
      "stateMutability": "view",
      "type": "function"
    },
    {
      "inputs": [],
      "name": "getWrappedTokenBridgeImplementation",
      "outputs": [
        {
          "internalType": "address",
          "name": "",
          "type": "address"
        }
      ],
      "stateMutability": "view",
      "type": "function"
    },
    {
      "inputs": [],
      "name": "globalExitRootManager",
      "outputs": [
        {
          "internalType": "contract IBasePolygonZkEVMGlobalExitRoot",
          "name": "",
          "type": "address"
        }
      ],
      "stateMutability": "view",
      "type": "function"
    },
    {
      "inputs": [
        {
          "internalType": "uint32",
          "name": "_networkID",
          "type": "uint32"
        },
        {
          "internalType": "address",
          "name": "_gasTokenAddress",
          "type": "address"
        },
        {
          "internalType": "uint32",
          "name": "_gasTokenNetwork",
          "type": "uint32"
        },
        {
          "internalType": "contract IBasePolygonZkEVMGlobalExitRoot",
          "name": "_globalExitRootManager",
          "type": "address"
        },
        {
          "internalType": "address",
          "name": "_polygonRollupManager",
          "type": "address"
        },
        {
          "internalType": "bytes",
          "name": "_gasTokenMetadata",
          "type": "bytes"
        },
        {
          "internalType": "address",
          "name": "_bridgeManager",
          "type": "address"
        },
        {
          "internalType": "address",
          "name": "_sovereignWETHAddress",
          "type": "address"
        },
        {
          "internalType": "bool",
          "name": "_sovereignWETHAddressIsNotMintable",
          "type": "bool"
        },
        {
          "internalType": "address",
          "name": "_emergencyBridgePauser",
          "type": "address"
        },
        {
          "internalType": "address",
          "name": "_emergencyBridgeUnpauser",
          "type": "address"
        },
        {
          "internalType": "address",
          "name": "_proxiedTokensManager",
          "type": "address"
        }
      ],
      "name": "initialize",
      "outputs": [],
      "stateMutability": "nonpayable",
      "type": "function"
    },
    {
      "inputs": [],
      "name": "initialize",
      "outputs": [],
      "stateMutability": "pure",
      "type": "function"
    },
    {
      "inputs": [
        {
          "internalType": "bytes32[]",
          "name": "tokenInfoHash",
          "type": "bytes32[]"
        },
        {
          "internalType": "uint256[]",
          "name": "amount",
          "type": "uint256[]"
        },
        {
          "internalType": "address",
          "name": "_emergencyBridgeUnpauser",
          "type": "address"
        },
        {
          "internalType": "address",
          "name": "_proxiedTokensManager",
          "type": "address"
        }
      ],
      "name": "initialize",
      "outputs": [],
      "stateMutability": "nonpayable",
      "type": "function"
    },
    {
      "inputs": [
        {
          "internalType": "uint32",
          "name": "",
          "type": "uint32"
        },
        {
          "internalType": "address",
          "name": "",
          "type": "address"
        },
        {
          "internalType": "uint32",
          "name": "",
          "type": "uint32"
        },
        {
          "internalType": "contract IBasePolygonZkEVMGlobalExitRoot",
          "name": "",
          "type": "address"
        },
        {
          "internalType": "address",
          "name": "",
          "type": "address"
        },
        {
          "internalType": "bytes",
          "name": "",
          "type": "bytes"
        }
      ],
      "name": "initialize",
      "outputs": [],
      "stateMutability": "nonpayable",
      "type": "function"
    },
    {
      "inputs": [
        {
          "internalType": "uint32",
          "name": "leafIndex",
          "type": "uint32"
        },
        {
          "internalType": "uint32",
          "name": "sourceBridgeNetwork",
          "type": "uint32"
        }
      ],
      "name": "isClaimed",
      "outputs": [
        {
          "internalType": "bool",
          "name": "",
          "type": "bool"
        }
      ],
      "stateMutability": "view",
      "type": "function"
    },
    {
      "inputs": [],
      "name": "isEmergencyState",
      "outputs": [
        {
          "internalType": "bool",
          "name": "",
          "type": "bool"
        }
      ],
      "stateMutability": "view",
      "type": "function"
    },
    {
      "inputs": [],
      "name": "lastUpdatedDepositCount",
      "outputs": [
        {
          "internalType": "uint32",
          "name": "",
          "type": "uint32"
        }
      ],
      "stateMutability": "view",
      "type": "function"
    },
    {
      "inputs": [
        {
          "internalType": "bytes32",
          "name": "tokenInfoHash",
          "type": "bytes32"
        }
      ],
      "name": "localBalanceTree",
      "outputs": [
        {
          "internalType": "uint256",
          "name": "amount",
          "type": "uint256"
        }
      ],
      "stateMutability": "view",
      "type": "function"
    },
    {
      "inputs": [
        {
          "internalType": "address",
          "name": "legacyTokenAddress",
          "type": "address"
        },
        {
          "internalType": "uint256",
          "name": "amount",
          "type": "uint256"
        },
        {
          "internalType": "bytes",
          "name": "permitData",
          "type": "bytes"
        }
      ],
      "name": "migrateLegacyToken",
      "outputs": [],
      "stateMutability": "nonpayable",
      "type": "function"
    },
    {
      "inputs": [],
      "name": "networkID",
      "outputs": [
        {
          "internalType": "uint32",
          "name": "",
          "type": "uint32"
        }
      ],
      "stateMutability": "view",
      "type": "function"
    },
    {
      "inputs": [],
      "name": "pendingEmergencyBridgePauser",
      "outputs": [
        {
          "internalType": "address",
          "name": "",
          "type": "address"
        }
      ],
      "stateMutability": "view",
      "type": "function"
    },
    {
      "inputs": [],
      "name": "pendingEmergencyBridgeUnpauser",
      "outputs": [
        {
          "internalType": "address",
          "name": "",
          "type": "address"
        }
      ],
      "stateMutability": "view",
      "type": "function"
    },
    {
      "inputs": [],
      "name": "pendingProxiedTokensManager",
      "outputs": [
        {
          "internalType": "address",
          "name": "",
          "type": "address"
        }
      ],
      "stateMutability": "view",
      "type": "function"
    },
    {
      "inputs": [],
      "name": "polygonRollupManager",
      "outputs": [
        {
          "internalType": "address",
          "name": "",
          "type": "address"
        }
      ],
      "stateMutability": "view",
      "type": "function"
    },
    {
      "inputs": [],
      "name": "proxiedTokensManager",
      "outputs": [
        {
          "internalType": "address",
          "name": "",
          "type": "address"
        }
      ],
      "stateMutability": "view",
      "type": "function"
    },
    {
      "inputs": [
        {
          "internalType": "address",
          "name": "legacySovereignTokenAddress",
          "type": "address"
        }
      ],
      "name": "removeLegacySovereignTokenAddress",
      "outputs": [],
      "stateMutability": "nonpayable",
      "type": "function"
    },
    {
      "inputs": [
        {
          "internalType": "address",
          "name": "_bridgeManager",
          "type": "address"
        }
      ],
      "name": "setBridgeManager",
      "outputs": [],
      "stateMutability": "nonpayable",
      "type": "function"
    },
    {
      "inputs": [
        {
          "internalType": "uint32[]",
          "name": "originNetworks",
          "type": "uint32[]"
        },
        {
          "internalType": "address[]",
          "name": "originTokenAddresses",
          "type": "address[]"
        },
        {
          "internalType": "address[]",
          "name": "sovereignTokenAddresses",
          "type": "address[]"
        },
        {
          "internalType": "bool[]",
          "name": "isNotMintable",
          "type": "bool[]"
        }
      ],
      "name": "setMultipleSovereignTokenAddress",
      "outputs": [],
      "stateMutability": "nonpayable",
      "type": "function"
    },
    {
      "inputs": [
        {
          "internalType": "address",
          "name": "sovereignWETHTokenAddress",
          "type": "address"
        },
        {
          "internalType": "bool",
          "name": "isNotMintable",
          "type": "bool"
        }
      ],
      "name": "setSovereignWETHAddress",
      "outputs": [],
      "stateMutability": "nonpayable",
      "type": "function"
    },
    {
      "inputs": [
        {
          "internalType": "bytes32",
          "name": "",
          "type": "bytes32"
        }
      ],
      "name": "tokenInfoToWrappedToken",
      "outputs": [
        {
          "internalType": "address",
          "name": "",
          "type": "address"
        }
      ],
      "stateMutability": "view",
      "type": "function"
    },
    {
      "inputs": [
        {
          "internalType": "address",
          "name": "newEmergencyBridgePauser",
          "type": "address"
        }
      ],
      "name": "transferEmergencyBridgePauserRole",
      "outputs": [],
      "stateMutability": "nonpayable",
      "type": "function"
    },
    {
      "inputs": [
        {
          "internalType": "address",
          "name": "newEmergencyBridgeUnpauser",
          "type": "address"
        }
      ],
      "name": "transferEmergencyBridgeUnpauserRole",
      "outputs": [],
      "stateMutability": "nonpayable",
      "type": "function"
    },
    {
      "inputs": [
        {
          "internalType": "address",
          "name": "newProxiedTokensManager",
          "type": "address"
        }
      ],
      "name": "transferProxiedTokensManagerRole",
      "outputs": [],
      "stateMutability": "nonpayable",
      "type": "function"
    },
    {
      "inputs": [],
      "name": "unsetGlobalIndexHashChain",
      "outputs": [
        {
          "internalType": "bytes32",
          "name": "",
          "type": "bytes32"
        }
      ],
      "stateMutability": "view",
      "type": "function"
    },
    {
      "inputs": [
        {
          "internalType": "uint256[]",
          "name": "globalIndexes",
          "type": "uint256[]"
        }
      ],
      "name": "unsetMultipleClaims",
      "outputs": [],
      "stateMutability": "nonpayable",
      "type": "function"
    },
    {
      "inputs": [],
      "name": "updateGlobalExitRoot",
      "outputs": [],
      "stateMutability": "nonpayable",
      "type": "function"
    },
    {
      "inputs": [
        {
          "internalType": "bytes32",
          "name": "leafHash",
          "type": "bytes32"
        },
        {
          "internalType": "bytes32[32]",
          "name": "smtProof",
          "type": "bytes32[32]"
        },
        {
          "internalType": "uint32",
          "name": "index",
          "type": "uint32"
        },
        {
          "internalType": "bytes32",
          "name": "root",
          "type": "bytes32"
        }
      ],
      "name": "verifyMerkleProof",
      "outputs": [
        {
          "internalType": "bool",
          "name": "",
          "type": "bool"
        }
      ],
      "stateMutability": "pure",
      "type": "function"
    },
    {
      "inputs": [
        {
          "internalType": "address",
          "name": "wrappedAddress",
          "type": "address"
        }
      ],
      "name": "wrappedAddressIsNotMintable",
      "outputs": [
        {
          "internalType": "bool",
          "name": "isNotMintable",
          "type": "bool"
        }
      ],
      "stateMutability": "view",
      "type": "function"
    },
    {
      "inputs": [],
      "name": "wrappedTokenBytecodeStorer",
      "outputs": [
        {
          "internalType": "contract IBytecodeStorer",
          "name": "",
          "type": "address"
        }
      ],
      "stateMutability": "view",
      "type": "function"
    },
    {
      "inputs": [
        {
          "internalType": "address",
          "name": "",
          "type": "address"
        }
      ],
      "name": "wrappedTokenToTokenInfo",
      "outputs": [
        {
          "internalType": "uint32",
          "name": "originNetwork",
          "type": "uint32"
        },
        {
          "internalType": "address",
          "name": "originTokenAddress",
          "type": "address"
        }
      ],
      "stateMutability": "view",
      "type": "function"
    },
    {
      "inputs": [],
      "name": "version",
      "outputs": [
        {
          "internalType": "string",
          "name": "",
          "type": "string"
        }
      ],
      "stateMutability": "view",
      "type": "function"
    }
  ],
  "bytecode": "0x60c060405234801561000f575f5ffd5b5060405161001c90610146565b604051809103905ff080158015610035573d5f5f3e3d5ffd5b506001600160a01b031660805260405161004e90610153565b604051809103905ff080158015610067573d5f5f3e3d5ffd5b506001600160a01b031660a05261007c610089565b610084610089565b610160565b5f54610100900460ff16156100f45760405162461bcd60e51b815260206004820152602760248201527f496e697469616c697a61626c653a20636f6e747261637420697320696e697469604482015266616c697a696e6760c81b606482015260840160405180910390fd5b5f5460ff9081161015610144575f805460ff191660ff9081179091556040519081527f7f26b83ff96e1f2b6a682f133852f6798a09c465da95921460cefb38474024989060200160405180910390a15b565b610fcf80615e0b83390190565b61171480616dda83390190565b60805160a051615c836101885f395f6105f801525f81816105ab01526120b30152615c835ff3fe6080604052600436106103a7575f3560e01c806383f24403116101e9578063cc46163211610108578063ece93c6f1161009d578063f5efcd791161006d578063f5efcd7914610b5c578063f67566e414610b7b578063f811bff714610bad578063fb57083414610bcc575f5ffd5b8063ece93c6f14610ad4578063ee25560b14610af3578063f0a3d95514610b1e578063f214e16114610b3d575f5ffd5b8063d9cb3aec116100d8578063d9cb3aec14610a62578063dbc1697614610a8d578063e88f043614610aa1578063eabd372a14610ab5575f5ffd5b8063cc461632146109e9578063ccaa2d1114610a08578063cd58657914610a27578063d02103ca14610a3a575f5ffd5b8063b45869621161017e578063bf130d7f1161014e578063bf130d7f14610969578063c00f14ab14610988578063c0f49163146109a7578063c514f24e146109d5575f5ffd5b8063b4586962146108e7578063b8b284d014610906578063bab161bf14610925578063be5831c714610946575f5ffd5b80638d942096116101b95780638d9420961461086b5780638ed7e3f21461088a578063ae24490a146108a9578063b0b37920146108c8575f5ffd5b806383f24403146108055780638b37b873146108245780638bd309c3146108385780638c668f1c14610857575f5ffd5b80633b2fee9a116102d557806365d6f6541161026a5780636ee84b231161023a5780636ee84b231461079457806379e2cf97146107a95780638129fc1c146107bd57806381b1c174146107d1575f5ffd5b806365d6f6541461070357806369e3ab12146107375780636e4ecfed146107565780636e974cd414610775575f5ffd5b80634b2f336d116102a55780634b2f336d1461069257806357cfbee3146106b15780635ca1e165146106d0578063606617ff146106e4575f5ffd5b80633b2fee9a146105ea5780633c351e101461061c5780633cbc795b1461063b5780633e19704314610673575f5ffd5b806322e95f2c1161034b5780632f84c6901161031b5780632f84c69014610513578063318aee3d14610532578063381fef6d1461059a57806338b8fbbb146105cd575f5ffd5b806322e95f2c146104ab578063240ff378146104ca57806327aef4e8146104dd5780632dfdf0b5146104fe575f5ffd5b806314cc01a01161038657806314cc01a01461042c57806315064c961461044b5780631d081d8c146104745780632072f6c514610497575f5ffd5b80626ee171146103ab57806303e6e116146103cc578063136a2c601461040d575b5f5ffd5b3480156103b6575f5ffd5b506103ca6103c5366004614a33565b610beb565b005b3480156103d7575f5ffd5b5060a8546103f09061010090046001600160a01b031681565b6040516001600160a01b0390911681526020015b60405180910390f35b348015610418575f5ffd5b506103ca610427366004614b47565b611143565b348015610437575f5ffd5b5060a3546103f0906001600160a01b031681565b348015610456575f5ffd5b506068546104649060ff1681565b6040519015158152602001610404565b34801561047f575f5ffd5b5061048960a55481565b604051908152602001610404565b3480156104a2575f5ffd5b506103ca6112a1565b3480156104b6575f5ffd5b506103f06104c5366004614bce565b6112d6565b6103ca6104d8366004614c48565b611324565b3480156104e8575f5ffd5b506104f1611394565b6040516104049190614d0a565b348015610509575f5ffd5b5061048960535481565b34801561051e575f5ffd5b5060a4546103f0906001600160a01b031681565b34801561053d575f5ffd5b5061057661054c366004614d1c565b606b6020525f908152604090205463ffffffff81169064010000000090046001600160a01b031682565b6040805163ffffffff90931683526001600160a01b03909116602083015201610404565b3480156105a5575f5ffd5b506103f07f000000000000000000000000000000000000000000000000000000000000000081565b3480156105d8575f5ffd5b506070546001600160a01b03166103f0565b3480156105f5575f5ffd5b507f00000000000000000000000000000000000000000000000000000000000000006103f0565b348015610627575f5ffd5b50606d546103f0906001600160a01b031681565b348015610646575f5ffd5b50606d5461065e90600160a01b900463ffffffff1681565b60405163ffffffff9091168152602001610404565b34801561067e575f5ffd5b5061048961068d366004614d45565b611420565b34801561069d575f5ffd5b50606f546103f0906001600160a01b031681565b3480156106bc575f5ffd5b506103ca6106cb366004614e91565b6114b1565b3480156106db575f5ffd5b5061048961159d565b3480156106ef575f5ffd5b5060aa546103f0906001600160a01b031681565b34801561070e575f5ffd5b506104f1604051806040016040528060098152602001680616c2d76302e332e360bc1b81525081565b348015610742575f5ffd5b506103ca610751366004614d1c565b61161c565b348015610761575f5ffd5b506070546103f0906001600160a01b031681565b348015610780575f5ffd5b506103ca61078f366004614fa8565b6116bf565b34801561079f575f5ffd5b5061048960a65481565b3480156107b4575f5ffd5b506103ca611a13565b3480156107c8575f5ffd5b506103ca611a34565b3480156107dc575f5ffd5b506103f06107eb366004614fee565b606a6020525f90815260409020546001600160a01b031681565b348015610810575f5ffd5b5061048961081f366004615016565b611a4d565b34801561082f575f5ffd5b506103ca611adc565b348015610843575f5ffd5b506103ca610852366004614d1c565b611b6d565b348015610862575f5ffd5b506103ca611bf4565b348015610876575f5ffd5b506103ca610885366004614d1c565b611c85565b348015610895575f5ffd5b50606c546103f0906001600160a01b031681565b3480156108b4575f5ffd5b5060a9546103f0906001600160a01b031681565b3480156108d3575f5ffd5b506103ca6108e2366004615052565b611d0c565b3480156108f2575f5ffd5b506103ca610901366004614d1c565b611e5c565b348015610911575f5ffd5b506103ca6109203660046150aa565b611fb7565b348015610930575f5ffd5b5060685461065e90610100900463ffffffff1681565b348015610951575f5ffd5b5060685461065e90600160c81b900463ffffffff1681565b348015610974575f5ffd5b506103ca610983366004615128565b612035565b348015610993575f5ffd5b506104f16109a2366004614d1c565b61206a565b3480156109b2575f5ffd5b506104646109c1366004614d1c565b60a26020525f908152604090205460ff1681565b3480156109e0575f5ffd5b506104f16120af565b3480156109f4575f5ffd5b50610464610a03366004615154565b612138565b348015610a13575f5ffd5b506103ca610a22366004615185565b612189565b6103ca610a35366004615264565b6125a5565b348015610a45575f5ffd5b506068546103f0906501000000000090046001600160a01b031681565b348015610a6d575f5ffd5b50610489610a7c366004614fee565b60a76020525f908152604090205481565b348015610a98575f5ffd5b506103ca612941565b348015610aac575f5ffd5b506103ca612974565b348015610ac0575f5ffd5b506103ca610acf366004614d1c565b612a23565b348015610adf575f5ffd5b506071546103f0906001600160a01b031681565b348015610afe575f5ffd5b50610489610b0d366004614fee565b60696020525f908152604090205481565b348015610b29575f5ffd5b506103ca610b38366004615335565b612ac3565b348015610b48575f5ffd5b506103f0610b57366004614bce565b612d67565b348015610b67575f5ffd5b506103ca610b76366004615185565b612e32565b348015610b86575f5ffd5b506104f16040518060400160405280600781526020016607631302e312e360cc1b81525081565b348015610bb8575f5ffd5b506103ca610bc73660046153c9565b613092565b348015610bd7575f5ffd5b50610464610be6366004615459565b613165565b5f5460ff166071805460ff60a01b1916600160a01b60ff938416021790555f5460039161010090910416158015610c2857505f5460ff8083169116105b610c905760405162461bcd60e51b815260206004820152602e60248201527f496e697469616c697a61626c653a20636f6e747261637420697320616c72656160448201526d191e481a5b9a5d1a585b1a5e995960921b60648201526084015b60405180910390fd5b5f805461ffff191660ff8084169190911761010017909155607154600160a01b90041615610cd15760405163f57ac68360e01b815260040160405180910390fd5b6001600160a01b038a16610cf85760405163f6b2911f60e01b815260040160405180910390fd5b8c63ffffffff165f03610d1e57604051634e702fa560e01b815260040160405180910390fd5b8c606860016101000a81548163ffffffff021916908363ffffffff16021790555089606860056101000a8154816001600160a01b0302191690836001600160a01b0316021790555088606c5f6101000a8154816001600160a01b0302191690836001600160a01b031602179055508660a35f6101000a8154816001600160a01b0302191690836001600160a01b031602179055508360a45f6101000a8154816001600160a01b0302191690836001600160a01b031602179055507f85d2bdfbe58cd81abf8199c13ce2509204be4aba8603b9d29f52c4e13e7bb7935f60a45f9054906101000a90046001600160a01b0316604051610e329291906001600160a01b0392831681529116602082015260400190565b60405180910390a160a980546001600160a01b0319166001600160a01b038516908117909155604080515f815260208101929092527f24cc8295aa5110cc216695db944ad2458c7795c6404449be980c3ce14aed752d910160405180910390a1306001600160a01b03831603610ebb57604051631ae0e03360e01b815260040160405180910390fd5b6001600160a01b038216610ee25760405163f6b2911f60e01b815260040160405180910390fd5b607080546001600160a01b0319166001600160a01b038416908117909155604080515f815260208101929092527fa9da6fb8c39e9c2fafda878eac316815987bdc948d241ba6d75ed035e0e829f2910160405180910390a16001600160a01b038c16610fa45763ffffffff8b1615610f6d57604051630d43a60960e11b815260040160405180910390fd5b6001600160a01b038616151580610f815750845b15610f9f57604051630e6e237560e11b815260040160405180910390fd5b6110df565b606d805463ffffffff8d16600160a01b026001600160c01b03199091166001600160a01b038f1617179055606e610fdb898261551a565b506001600160a01b0386166110a75784151560010361100d57604051630e6e237560e11b815260040160405180910390fd5b6110825f5f1b601260405160200161106e91906060808252600d908201526c2bb930b83832b21022ba3432b960991b608082015260a060208201819052600490820152630ae8aa8960e31b60c082015260ff91909116604082015260e00190565b60405160208183030381529060405261317c565b606f80546001600160a01b0319166001600160a01b03929092169190911790556110df565b606f80546001600160a01b0319166001600160a01b0388169081179091555f90815260a260205260409020805460ff19168615151790555b6110e761325d565b5f805461ff001916905560405160ff821681527f7f26b83ff96e1f2b6a682f133852f6798a09c465da95921460cefb38474024989060200160405180910390a150506071805460ff60a01b191690555050505050505050505050565b606854604080516391eb796d60e01b8152905133926501000000000090046001600160a01b0316916391eb796d9160048083019260209291908290030181865afa158015611193573d5f5f3e3d5ffd5b505050506040513d601f19601f820116820180604052508101906111b791906155d5565b6001600160a01b0316146111de5760405163a34ddeb160e01b815260040160405180910390fd5b5f5b815181101561129d575f8282815181106111fc576111fc6155f0565b602002602001015190505f5f6801000000000000000083165f1461122257829150611239565b602083901c611232816001615618565b9150839250505b61124382826132cf565b60a6545f90815260208490526040902060a68190556040805185815260208101929092527fc80e0aca446a59735359a7ae46124b57c47b892827642779bc6dafc84ba90b03910160405180910390a15050506001016111e0565b5050565b60a4546001600160a01b031633146112cc57604051631344c5df60e11b815260040160405180910390fd5b6112d4613341565b565b5f606a5f84846040516020016112ed929190615634565b60408051601f198184030181529181528151602092830120835290820192909252015f20546001600160a01b031690505b92915050565b60685460ff161561134857604051630bc011ff60e21b815260040160405180910390fd5b34158015906113615750606f546001600160a01b031615155b1561137f576040516301bd897160e61b815260040160405180910390fd5b61138d85853486868661339c565b5050505050565b606e80546113a19061549e565b80601f01602080910402602001604051908101604052809291908181526020018280546113cd9061549e565b80156114185780601f106113ef57610100808354040283529160200191611418565b820191905f5260205f20905b8154815290600101906020018083116113fb57829003601f168201915b505050505081565b6040516001600160f81b031960f889901b1660208201526001600160e01b031960e088811b821660218401526bffffffffffffffffffffffff19606089811b821660258601529188901b909216603984015285901b16603d82015260518101839052607181018290525f90609101604051602081830303815290604052805190602001209050979650505050505050565b60a3546001600160a01b031633146114dc576040516357b738d160e11b815260040160405180910390fd5b825184511415806114ef57508151845114155b806114fc57508051845114155b1561151a5760405163434f49f560e11b815260040160405180910390fd5b5f5b825181101561138d5761159585828151811061153a5761153a6155f0565b6020026020010151858381518110611554576115546155f0565b602002602001015185848151811061156e5761156e6155f0565b6020026020010151858581518110611588576115886155f0565b6020026020010151613470565b60010161151c565b6053545f90819081805b6020811015611613578083901c6001166001036115ec576115e5603382602081106115d4576115d46155f0565b0154855f9182526020526040902090565b93506115fc565b5f84815260208390526040902093505b5f82815260208390526040902091506001016115a7565b50919392505050565b60a4546001600160a01b0316331461164757604051631344c5df60e11b815260040160405180910390fd5b60a8805474ffffffffffffffffffffffffffffffffffffffff0019166101006001600160a01b038481169182029290921790925560a4546040805191909216815260208101929092527fb27de219766f47b82684842855ba6130b6dbf288ac66d1c3509e7bf17f4e925a91015b60405180910390a150565b60a3546001600160a01b031633146116ea576040516357b738d160e11b815260040160405180910390fd5b6001600160a01b038216158015611705575063ffffffff8316155b15611895575f6118835f5f1b606f5f9054906101000a90046001600160a01b03166001600160a01b03166306fdde036040518163ffffffff1660e01b81526004015f60405180830381865afa158015611760573d5f5f3e3d5ffd5b505050506040513d5f823e601f3d908101601f1916820160405261178791908101906156af565b606f5f9054906101000a90046001600160a01b03166001600160a01b03166395d89b416040518163ffffffff1660e01b81526004015f60405180830381865afa1580156117d6573d5f5f3e3d5ffd5b505050506040513d5f823e601f3d908101601f191682016040526117fd91908101906156af565b606f5f9054906101000a90046001600160a01b03166001600160a01b031663313ce5676040518163ffffffff1660e01b8152600401602060405180830381865afa15801561184d573d5f5f3e3d5ffd5b505050506040513d601f19601f8201168201806040525081019061187191906156e1565b60405160200161106e939291906156fc565b905061188f8183613622565b50505050565b5f83836040516020016118a9929190615634565b60408051601f1981840301815291815281516020928301205f818152606a9093529120549091506001600160a01b0316806118f75760405163828d566360e01b815260040160405180910390fd5b5f6119fc83836001600160a01b03166306fdde036040518163ffffffff1660e01b81526004015f60405180830381865afa158015611937573d5f5f3e3d5ffd5b505050506040513d5f823e601f3d908101601f1916820160405261195e91908101906156af565b846001600160a01b03166395d89b416040518163ffffffff1660e01b81526004015f60405180830381865afa158015611999573d5f5f3e3d5ffd5b505050506040513d5f823e601f3d908101601f191682016040526119c091908101906156af565b856001600160a01b031663313ce5676040518163ffffffff1660e01b8152600401602060405180830381865afa15801561184d573d5f5f3e3d5ffd5b9050611a0a86868387613470565b5050505b505050565b605354606854600160c81b900463ffffffff1610156112d4576112d46136c2565b60405163f57ac68360e01b815260040160405180910390fd5b5f83815b6020811015611ad157600163ffffffff8516821c81169003611a9d57611a96858260208110611a8257611a826155f0565b6020020135835f9182526020526040902090565b9150611ac9565b611ac682868360208110611ab357611ab36155f0565b60200201355f9182526020526040902090565b91505b600101611a51565b5090505b9392505050565b60aa546001600160a01b03163314611b075760405163d491f0c160e01b815260040160405180910390fd5b60a9805460aa80546001600160a01b038082166001600160a01b0319808616821790965594909116909155604080519190921680825260208201939093527f85d2bdfbe58cd81abf8199c13ce2509204be4aba8603b9d29f52c4e13e7bb79391016116b4565b6070546001600160a01b03163314611b9857604051630866750360e01b815260040160405180910390fd5b607180546001600160a01b0319166001600160a01b038381169182179092556070546040805191909316815260208101919091527f0a34baa3feb299aef9c05cb59c6e0c8e7c0bcc65cbf0a647e7a7c8a2411591e291016116b4565b6071546001600160a01b03163314611c1f57604051630b59ef2760e21b815260040160405180910390fd5b60708054607180546001600160a01b038082166001600160a01b0319808616821790965594909116909155604080519190921680825260208201939093527fa9da6fb8c39e9c2fafda878eac316815987bdc948d241ba6d75ed035e0e829f291016116b4565b60a9546001600160a01b03163314611cb057604051638e9d821f60e01b815260040160405180910390fd5b60aa80546001600160a01b0319166001600160a01b0383811691821790925560a9546040805191909316815260208101919091527ff01a62a06940517bbc898dec8c75794b9feabcd2d263c8de823b36dbbeb8779b91016116b4565b8015611d1d57611d1d848383613752565b6001600160a01b038085165f908152606b602090815260409182902082518084019093525463ffffffff81168352640100000000900490921691810182905290611d7a5760405163828d566360e01b815260040160405180910390fd5b5f606a5f835f01518460200151604051602001611d98929190615634565b60408051601f198184030181529181528151602092830120835290820192909252015f20546001600160a01b03908116915086168103611deb5760405163e273c4a160e01b815260040160405180910390fd5b5f611df68787613a6c565b9050611e03823383613beb565b604080513381526001600160a01b0389811660208301528416818301526060810183905290517fb7f8fd4d1faf9b2929dc269f59c53e3a2bccc44e9950f33a568fcbcb37eb69a99181900360800190a150505050505050565b60a3546001600160a01b03163314611e87576040516357b738d160e11b815260040160405180910390fd5b6001600160a01b038082165f908152606b6020908152604080832081518083018352905463ffffffff811680835264010000000090910490951681840181905291519094611ed89390929101615634565b60408051601f1981840301815291815281516020928301205f818152606a9093529120549091506001600160a01b03161580611f2c57505f818152606a60205260409020546001600160a01b038481169116145b15611f4a5760405163e0c897a760e01b815260040160405180910390fd5b6001600160a01b0383165f818152606b6020908152604080832080546001600160c01b031916905560a2825291829020805460ff1916905590519182527fc2ae0bd0ec0fd0352bfe5bacac49637af342c1e40f1b80a7f74440dc7fe3f063910160405180910390a1505050565b60685460ff1615611fdb57604051630bc011ff60e21b815260040160405180910390fd5b606f546001600160a01b03166120045760405163dde3cda760e01b815260040160405180910390fd5b606f545f9061201c906001600160a01b031686613a6c565b905061202c87878387878761339c565b50505050505050565b60a3546001600160a01b03163314612060576040516357b738d160e11b815260040160405180910390fd5b61129d8282613622565b606061207582613c9f565b61207e83613d62565b61208784613e16565b604051602001612099939291906156fc565b6040516020818303038152906040529050919050565b60607f00000000000000000000000000000000000000000000000000000000000000006001600160a01b031663c514f24e6040518163ffffffff1660e01b81526004015f60405180830381865afa15801561210c573d5f5f3e3d5ffd5b505050506040513d5f823e601f3d908101601f191682016040526121339190810190615734565b905090565b5f8061214f64010000000063ffffffff8516615779565b61215f9063ffffffff8616615790565b600881901c5f90815260696020526040902054600160ff9092169190911b90811614949350505050565b60685460ff16156121ad57604051630bc011ff60e21b815260040160405180910390fd5b6121b5613eca565b60685463ffffffff86811661010090920416146121e5576040516302caf51760e11b815260040160405180910390fd5b6122108c8c8c8c8c5f8d8d8d8d8d8d8d6040516122039291906157a3565b6040518091039020613f23565b6001600160a01b03861615801561222b575063ffffffff8716155b1561230957606f546001600160a01b03166122ed575f6001600160a01b03851684825b6040519080825280601f01601f191660200182016040528015612278576020820181803683370190505b5060405161228691906157b2565b5f6040518083038185875af1925050503d805f81146122c0576040519150601f19603f3d011682016040523d82523d5f602084013e6122c5565b606091505b50509050806122e757604051630ce8f45160e31b815260040160405180910390fd5b50612532565b606f54612304906001600160a01b03168585613beb565b612532565b606d546001600160a01b0387811691161480156123375750606d5463ffffffff888116600160a01b90920416145b1561234e575f6001600160a01b038516848261224e565b60685463ffffffff61010090910481169088160361237a576123046001600160a01b0387168585613fe2565b5f878760405160200161238e929190615634565b60408051601f1981840301815291815281516020928301205f818152606a9093529120549091506001600160a01b031680612524575f6124038386868080601f0160208091040260200160405190810160405280939291908181526020018383808284375f9201919091525061317c92505050565b9050612410818888613beb565b80606a5f8581526020019081526020015f205f6101000a8154816001600160a01b0302191690836001600160a01b0316021790555060405180604001604052808b63ffffffff1681526020018a6001600160a01b0316815250606b5f836001600160a01b03166001600160a01b031681526020019081526020015f205f820151815f015f6101000a81548163ffffffff021916908363ffffffff1602179055506020820151815f0160046101000a8154816001600160a01b0302191690836001600160a01b031602179055509050507f490e59a1701b938786ac72570a1efeac994a3dbe96e2e883e19e902ace6e6a398a8a8388886040516125169594939291906157f5565b60405180910390a15061252f565b61252f818787613beb565b50505b604080518b815263ffffffff891660208201526001600160a01b0388811682840152861660608201526080810185905290517f1df3f2a973a00d6635911755c260704e95e8a5876997546798770f76396fda4d9181900360a00190a161259760018055565b505050505050505050505050565b60685460ff16156125c957604051630bc011ff60e21b815260040160405180910390fd5b6125d1613eca565b60685463ffffffff610100909104811690881603612602576040516302caf51760e11b815260040160405180910390fd5b5f806060876001600160a01b0388166126e5578834146126355760405163b89240f560e01b815260040160405180910390fd5b606d54606e80546001600160a01b0383169650600160a01b90920463ffffffff169450906126629061549e565b80601f016020809104026020016040519081016040528092919081815260200182805461268e9061549e565b80156126d95780601f106126b0576101008083540402835291602001916126d9565b820191905f5260205f20905b8154815290600101906020018083116126bc57829003601f168201915b505050505091506128c9565b34156127045760405163798ee6f160e01b815260040160405180910390fd5b841561271557612715888787613752565b606f546001600160a01b039081169089160361273c57612735888a613a6c565b90506128c9565b6001600160a01b038089165f908152606b602090815260409182902082518084019093525463ffffffff8116835264010000000090049092169181018290529015158061278f5750805163ffffffff1615155b156127b15761279e898b613a6c565b60208201518251909650945091506128bc565b6040516370a0823160e01b81523060048201525f906001600160a01b038b16906370a0823190602401602060405180830381865afa1580156127f5573d5f5f3e3d5ffd5b505050506040513d601f19601f82011682018060405250810190612819919061583d565b90506128306001600160a01b038b1633308e614047565b6040516370a0823160e01b81523060048201525f906001600160a01b038c16906370a0823190602401602060405180830381865afa158015612874573d5f5f3e3d5ffd5b505050506040513d601f19601f82011682018060405250810190612898919061583d565b90506128a48282615854565b6068548c9850610100900463ffffffff169650935050505b6128c58961206a565b9250505b7f501781209a1f8899323b96b4ef08b168df93e0a90c673d1e4cce39366cb62f9b5f84868e8e8688605354604051612908989796959493929190615867565b60405180910390a16129265f84868e8e868880519060200120614080565b8615612934576129346136c2565b5050505061202c60018055565b60a9546001600160a01b0316331461296c57604051638e9d821f60e01b815260040160405180910390fd5b6112d46140b8565b60a85461010090046001600160a01b031633146129a457604051637bb0100f60e01b815260040160405180910390fd5b60a4805460a880546001600160a01b03610100820481166001600160a01b03198516811790955574ffffffffffffffffffffffffffffffffffffffff0019909116909155604080519190921680825260208201939093527f85d2bdfbe58cd81abf8199c13ce2509204be4aba8603b9d29f52c4e13e7bb79391016116b4565b60a3546001600160a01b03163314612a4e576040516357b738d160e11b815260040160405180910390fd5b6001600160a01b038116612a755760405163f6b2911f60e01b815260040160405180910390fd5b60a380546001600160a01b0319166001600160a01b0383169081179091556040519081527f32cf74f8a6d5f88593984d2cd52be5592bfa6884f5896175801a5069ef09cd67906020016116b4565b5f5460ff166071805460ff60a01b1916600160a01b60ff938416021790555f5460039161010090910416158015612b0057505f5460ff8083169116105b612b635760405162461bcd60e51b815260206004820152602e60248201527f496e697469616c697a61626c653a20636f6e747261637420697320616c72656160448201526d191e481a5b9a5d1a585b1a5e995960921b6064820152608401610c87565b5f805461ffff191660ff80841691909117610100178255607154600160a01b9004169003612ba45760405163f57ac68360e01b815260040160405180910390fd5b858414612bc45760405163434f49f560e11b815260040160405180910390fd5b5f5b86811015612c1057612c08888883818110612be357612be36155f0565b90506020020135878784818110612bfc57612bfc6155f0565b9050602002013561410f565b600101612bc6565b5060a980546001600160a01b0319166001600160a01b038516908117909155604080515f815260208101929092527f24cc8295aa5110cc216695db944ad2458c7795c6404449be980c3ce14aed752d910160405180910390a1306001600160a01b03831603612c9257604051631ae0e03360e01b815260040160405180910390fd5b6001600160a01b038216612cb95760405163f6b2911f60e01b815260040160405180910390fd5b607080546001600160a01b0319166001600160a01b038416908117909155604080515f815260208101929092527fa9da6fb8c39e9c2fafda878eac316815987bdc948d241ba6d75ed035e0e829f2910160405180910390a15f805461ff001916905560405160ff821681527f7f26b83ff96e1f2b6a682f133852f6798a09c465da95921460cefb38474024989060200160405180910390a150506071805460ff60a01b191690555050505050565b5f5f8383604051602001612d7c929190615634565b6040516020818303038152906040528051906020012090505f60ff60f81b3083612da46120af565b604051602001612db491906157b2565b60405160208183030381529060405280519060200120604051602001612e1194939291906001600160f81b031994909416845260609290921b6bffffffffffffffffffffffff191660018401526015830152603582015260550190565b60408051808303601f19018152919052805160209091012095945050505050565b60685460ff1615612e5657604051630bc011ff60e21b815260040160405180910390fd5b60685463ffffffff8681166101009092041614612e86576040516302caf51760e11b815260040160405180910390fd5b612ea58c8c8c8c8c60018d8d8d8d8d8d8d6040516122039291906157a3565b606f545f906001600160a01b0316612f5857846001600160a01b031684888a8686604051602401612ed994939291906158db565b60408051601f198184030181529181526020820180516001600160e01b0316630c035af960e11b17905251612f0e91906157b2565b5f6040518083038185875af1925050503d805f8114612f48576040519150601f19603f3d011682016040523d82523d5f602084013e612f4d565b606091505b505080915050613009565b606f54612f6f906001600160a01b03168686613beb565b846001600160a01b031687898585604051602401612f9094939291906158db565b60408051601f198184030181529181526020820180516001600160e01b0316630c035af960e11b17905251612fc591906157b2565b5f604051808303815f865af19150503d805f8114612ffe576040519150601f19603f3d011682016040523d82523d5f602084013e613003565b606091505b50909150505b80613027576040516337e391c360e01b815260040160405180910390fd5b604080518c815263ffffffff8a1660208201526001600160a01b0389811682840152871660608201526080810186905290517f1df3f2a973a00d6635911755c260704e95e8a5876997546798770f76396fda4d9181900360a00190a150505050505050505050505050565b5f54610100900460ff16158080156130b057505f54600160ff909116105b806130c95750303b1580156130c957505f5460ff166001145b61312c5760405162461bcd60e51b815260206004820152602e60248201527f496e697469616c697a61626c653a20636f6e747261637420697320616c72656160448201526d191e481a5b9a5d1a585b1a5e995960921b6064820152608401610c87565b5f805460ff191660011790558015611a34575f805461ff00191661010017905560405163f57ac68360e01b815260040160405180910390fd5b5f81613172868686611a4d565b1495945050505050565b5f5f6131866120af565b60405160200161319691906157b2565b6040516020818303038152906040529050838151602083015ff591506001600160a01b0382166131d9576040516331682e8d60e11b815260040160405180910390fd5b5f5f5f858060200190518101906131f09190615909565b925092509250846001600160a01b0316631624f6c68484846040518463ffffffff1660e01b8152600401613226939291906156fc565b5f604051808303815f87803b15801561323d575f5ffd5b505af115801561324f573d5f5f3e3d5ffd5b505050505050505092915050565b5f54610100900460ff166132c75760405162461bcd60e51b815260206004820152602b60248201527f496e697469616c697a61626c653a20636f6e7472616374206973206e6f74206960448201526a6e697469616c697a696e6760a81b6064820152608401610c87565b6112d4614156565b5f6132e564010000000063ffffffff8416615779565b6132f59063ffffffff8516615790565b600881901c5f8181526069602052604090208054600160ff851690811b91821892839055939450919291908082161561202c57604051630631b5f760e31b815260040160405180910390fd5b60685460ff161561336557604051630bc011ff60e21b815260040160405180910390fd5b6068805460ff191660011790556040517f2261efe5aef6fedc1fd1550b25facc9181745623049c7901287030b9ad1a5497905f90a1565b60685463ffffffff6101009091048116908716036133cd576040516302caf51760e11b815260040160405180910390fd5b7f501781209a1f8899323b96b4ef08b168df93e0a90c673d1e4cce39366cb62f9b6001606860019054906101000a900463ffffffff1633898989888860535460405161342199989796959493929190615976565b60405180910390a16134626001606860019054906101000a900463ffffffff163389898988886040516134559291906157a3565b6040518091039020614080565b8215611a0a57611a0a6136c2565b6001600160a01b038316158061348d57506001600160a01b038216155b156134ab5760405163f6b2911f60e01b815260040160405180910390fd5b60685463ffffffff6101009091048116908516036134dc5760405163658b23ad60e01b815260040160405180910390fd5b6001600160a01b038281165f908152606b60205260409020546401000000009004161561351c576040516317abdeeb60e21b815260040160405180910390fd5b5f8484604051602001613530929190615634565b60408051808303601f1901815282825280516020918201205f818152606a835283812080546001600160a01b0319166001600160a01b038a8116918217909255868601865263ffffffff8c81168089528c8416878a01818152848752606b89528987209a518b54915194166001600160c01b03199091161764010000000093909516929092029390931790975560a2855291859020805460ff191689151590811790915585519182529381019590955292840192909252606083015291507fdbe8a5da6a7a916d9adfda9160167a0f8a3da415ee6610e810e753853597fce79060800160405180910390a15050505050565b606d546001600160a01b031661364b57604051634cb4711360e11b815260040160405180910390fd5b606f80546001600160a01b0319166001600160a01b0384169081179091555f81815260a26020908152604091829020805460ff19168515159081179091558251938452908301527fc7318b7ed6ba4f2908a3de396d8ab49b1dadb55db5b55123247a401f29ff8d8291015b60405180910390a15050565b6053546068805463ffffffff909216600160c81b0263ffffffff60c81b1990921691909117908190556001600160a01b0365010000000000909104166333d6247d61370b61159d565b6040518263ffffffff1660e01b815260040161372991815260200190565b5f604051808303815f87803b158015613740575f5ffd5b505af115801561188f573d5f5f3e3d5ffd5b5f61376060048284866159ec565b61376991615a13565b9050632afa533160e01b6001600160e01b03198216016138d8575f808080808080613797896004818d6159ec565b8101906137a49190615a4b565b9650965096509650965096509650336001600160a01b0316876001600160a01b0316146137e45760405163912ecce760e01b815260040160405180910390fd5b6001600160a01b038616301461380d5760405163750643af60e01b815260040160405180910390fd5b604080516001600160a01b0389811660248301528881166044830152606482018890526084820187905260ff861660a483015260c4820185905260e48083018590528351808403909101815261010490920183526020820180516001600160e01b031663d505accf60e01b1790529151918d169161388b91906157b2565b5f604051808303815f865af19150503d805f81146138c4576040519150601f19603f3d011682016040523d82523d5f602084013e6138c9565b606091505b5050505050505050505061188f565b6001600160e01b031981166323f2ebc360e21b1461390957604051637141605d60e11b815260040160405180910390fd5b5f8080808080808061391e8a6004818e6159ec565b81019061392b9190615a9a565b97509750975097509750975097509750336001600160a01b0316886001600160a01b03161461396d5760405163912ecce760e01b815260040160405180910390fd5b6001600160a01b03871630146139965760405163750643af60e01b815260040160405180910390fd5b604080516001600160a01b038a811660248301528981166044830152606482018990526084820188905286151560a483015260ff861660c483015260e482018590526101048083018590528351808403909101815261012490920183526020820180516001600160e01b03166323f2ebc360e21b1790529151918e1691613a1d91906157b2565b5f604051808303815f865af19150503d805f8114613a56576040519150601f19603f3d011682016040523d82523d5f602084013e613a5b565b606091505b505050505050505050505050505050565b6001600160a01b0382165f90815260a2602052604081205460ff1615613b88576040516370a0823160e01b81523060048201525f906001600160a01b038516906370a0823190602401602060405180830381865afa158015613ad0573d5f5f3e3d5ffd5b505050506040513d601f19601f82011682018060405250810190613af4919061583d565b9050613b0b6001600160a01b038516333086614047565b6040516370a0823160e01b81523060048201525f906001600160a01b038616906370a0823190602401602060405180830381865afa158015613b4f573d5f5f3e3d5ffd5b505050506040513d601f19601f82011682018060405250810190613b73919061583d565b9050613b7f8282615854565b9250505061131e565b604051632770a7eb60e21b8152336004820152602481018390526001600160a01b03841690639dc29fac906044015f604051808303815f87803b158015613bcd575f5ffd5b505af1158015613bdf573d5f5f3e3d5ffd5b5050505081905061131e565b6001600160a01b038216613c125760405163f6b2911f60e01b815260040160405180910390fd5b6001600160a01b0383165f90815260a2602052604090205460ff1615613c4657611a0e6001600160a01b0384168383613fe2565b6040516340c10f1960e01b81526001600160a01b038381166004830152602482018390528416906340c10f19906044015f604051808303815f87803b158015613c8d575f5ffd5b505af115801561202c573d5f5f3e3d5ffd5b60408051600481526024810182526020810180516001600160e01b03166306fdde0360e01b17905290516060915f9182916001600160a01b03861691613ce591906157b2565b5f60405180830381855afa9150503d805f8114613d1d576040519150601f19603f3d011682016040523d82523d5f602084013e613d22565b606091505b509150915081613d5157604051806040016040528060078152602001664e4f5f4e414d4560c81b815250613d5a565b613d5a816141c0565b949350505050565b60408051600481526024810182526020810180516001600160e01b03166395d89b4160e01b17905290516060915f9182916001600160a01b03861691613da891906157b2565b5f60405180830381855afa9150503d805f8114613de0576040519150601f19603f3d011682016040523d82523d5f602084013e613de5565b606091505b509150915081613d5157604051806040016040528060098152602001681393d7d4d6535093d360ba1b815250613d5a565b60408051600481526024810182526020810180516001600160e01b031663313ce56760e01b17905290515f91829182916001600160a01b03861691613e5b91906157b2565b5f60405180830381855afa9150503d805f8114613e93576040519150601f19603f3d011682016040523d82523d5f602084013e613e98565b606091505b5091509150818015613eab575080516020145b613eb6576012613d5a565b80806020019051810190613d5a91906156e1565b600260015403613f1c5760405162461bcd60e51b815260206004820152601f60248201527f5265656e7472616e637947756172643a207265656e7472616e742063616c6c006044820152606401610c87565b6002600155565b5f613f3388888888888888611420565b9050613f438d8d8d8d8d86614358565b60a554613f6b90613f5d8d845f9182526020526040902090565b5f9182526020526040902090565b60a5819055604080518d815260208101929092527f3e5936f910a78eb5181813a939c8d4c3e4d85f87943f659380d82ac6221b0e92910160405180910390a160ff8816613fbd57613fbd8787856144a9565b5f1960ff891601613fd357613fd35f5f856144a9565b50505050505050505050505050565b6040516001600160a01b03838116602483015260448201839052611a0e91859182169063a9059cbb906064015b604051602081830303815290604052915060e01b6020820180516001600160e01b038381831617835250505050614589565b60018055565b6040516001600160a01b03848116602483015283811660448301526064820183905261188f9186918216906323b872dd9060840161400f565b61408f878787878787876145ea565b60ff87166140a2576140a2868684614601565b5f1960ff88160161202c5761202c5f5f84614601565b60685460ff166140db57604051635386698160e01b815260040160405180910390fd5b6068805460ff191690556040517f1e5e34eea33501aecf2ebec9fe0e884a40804275ea7fe10b2ba084c8374308b3905f90a1565b5f82815260a7602090815260409182902083905581518481529081018390527f2277ec68451dc01bd131765a9858d6de94d7e11220704d8ac1718fdb8de07cb291016136b6565b5f54610100900460ff166140415760405162461bcd60e51b815260206004820152602b60248201527f496e697469616c697a61626c653a20636f6e7472616374206973206e6f74206960448201526a6e697469616c697a696e6760a81b6064820152608401610c87565b606060408251106141df578180602001905181019061131e91906156af565b8151602003614325575f5b6020811080156142195750828181518110614207576142076155f0565b01602001516001600160f81b03191615155b15614230578061422881615b18565b9150506141ea565b805f036142675750506040805180820190915260128152714e4f545f56414c49445f454e434f44494e4760701b6020820152919050565b5f8167ffffffffffffffff8111156142815761428161495d565b6040519080825280601f01601f1916602001820160405280156142ab576020820181803683370190505b5090505f5b8281101561431d578481815181106142ca576142ca6155f0565b602001015160f81c60f81b8282815181106142e7576142e76155f0565b60200101907effffffffffffffffffffffffffffffffffffffffffffffffffffffffffffff191690815f1a9053506001016142b0565b509392505050565b50506040805180820190915260128152714e4f545f56414c49445f454e434f44494e4760701b602082015290565b919050565b6068545f906501000000000090046001600160a01b031663257b363261438786865f9182526020526040902090565b6040518263ffffffff1660e01b81526004016143a591815260200190565b6020604051808303815f875af11580156143c1573d5f5f3e3d5ffd5b505050506040513d601f19601f820116820180604052508101906143e5919061583d565b9050805f0361440657604051622f6fad60e01b815260040160405180910390fd5b5f806801000000000000000087161561444a57869150614428848a8489613165565b614445576040516338105f3b60e21b815260040160405180910390fd5b614494565b602087901c61445a816001615618565b915087925061447561446d868c86611a4d565b8a8389613165565b614492576040516338105f3b60e21b815260040160405180910390fd5b505b61449e82826146cb565b505050505050505050565b60685463ffffffff6101009091048116908416036144c657505050565b5f83836040516020016144da929190615634565b60408051601f1981840301815291815281516020928301205f81815260a790935291205490915061450c905f19615854565b821115614561575f81815260a76020526040908190205490516323d7213360e01b815263ffffffff861660048201526001600160a01b0385166024820152604481018490526064810191909152608401610c87565b5f81815260a760205260408120805484929061457e908490615790565b909155505050505050565b5f61459d6001600160a01b0384168361473e565b905080515f141580156145c15750808060200190518101906145bf9190615b30565b155b15611a0e57604051635274afe760e01b81526001600160a01b0384166004820152602401610c87565b61202c6145fc88888888888888611420565b61474b565b60685463ffffffff61010090910481169084160361461e57505050565b5f8383604051602001614632929190615634565b60408051601f1981840301815291815281516020928301205f81815260a79093529120549091508211156146ae575f81815260a76020526040908190205490516314603c0160e01b815263ffffffff861660048201526001600160a01b0385166024820152604481018490526064810191909152608401610c87565b5f81815260a760205260408120805484929061457e908490615854565b5f6146e164010000000063ffffffff8416615779565b6146f19063ffffffff8516615790565b600881901c5f8181526069602052604081208054600160ff861690811b9182189283905594955092939291818316900361202c57604051630c8d9eab60e31b815260040160405180910390fd5b6060611ad583835f61480a565b80600161475a60206002615c2e565b6147649190615854565b60535410614785576040516377ae67b360e11b815260040160405180910390fd5b5f60535f815461479490615b18565b918290555090505f5b6020811015614801578082901c6001166001036147d05782603382602081106147c8576147c86155f0565b015550505050565b6147f7603382602081106147e6576147e66155f0565b0154845f9182526020526040902090565b925060010161479d565b50611a0e615c39565b60608147101561482f5760405163cd78605960e01b8152306004820152602401610c87565b5f5f856001600160a01b0316848660405161484a91906157b2565b5f6040518083038185875af1925050503d805f8114614884576040519150601f19603f3d011682016040523d82523d5f602084013e614889565b606091505b50915091506148998683836148a3565b9695505050505050565b6060826148b8576148b3826148ff565b611ad5565b81511580156148cf57506001600160a01b0384163b155b156148f857604051639996b31560e01b81526001600160a01b0385166004820152602401610c87565b5080611ad5565b80511561490f5780518082602001fd5b604051630a12f52160e11b815260040160405180910390fd5b50565b803563ffffffff81168114614353575f5ffd5b6001600160a01b0381168114614928575f5ffd5b80356143538161493e565b634e487b7160e01b5f52604160045260245ffd5b604051601f8201601f1916810167ffffffffffffffff8111828210171561499a5761499a61495d565b604052919050565b5f67ffffffffffffffff8211156149bb576149bb61495d565b50601f01601f191660200190565b5f82601f8301126149d8575f5ffd5b81356149eb6149e6826149a2565b614971565b8181528460208386010111156149ff575f5ffd5b816020850160208301375f918101602001919091529392505050565b8015158114614928575f5ffd5b803561435381614a1b565b5f5f5f5f5f5f5f5f5f5f5f5f6101808d8f031215614a4f575f5ffd5b614a588d61492b565b9b50614a6660208e01614952565b9a50614a7460408e0161492b565b9950614a8260608e01614952565b9850614a9060808e01614952565b975067ffffffffffffffff60a08e01351115614aaa575f5ffd5b614aba8e60a08f01358f016149c9565b9650614ac860c08e01614952565b9550614ad660e08e01614952565b9450614ae56101008e01614a28565b9350614af46101208e01614952565b9250614b036101408e01614952565b9150614b126101608e01614952565b90509295989b509295989b509295989b565b5f67ffffffffffffffff821115614b3d57614b3d61495d565b5060051b60200190565b5f60208284031215614b57575f5ffd5b813567ffffffffffffffff811115614b6d575f5ffd5b8201601f81018413614b7d575f5ffd5b8035614b8b6149e682614b24565b8082825260208201915060208360051b850101925086831115614bac575f5ffd5b6020840193505b82841015614899578335825260209384019390910190614bb3565b5f5f60408385031215614bdf575f5ffd5b614be88361492b565b91506020830135614bf88161493e565b809150509250929050565b5f5f83601f840112614c13575f5ffd5b50813567ffffffffffffffff811115614c2a575f5ffd5b602083019150836020828501011115614c41575f5ffd5b9250929050565b5f5f5f5f5f60808688031215614c5c575f5ffd5b614c658661492b565b94506020860135614c758161493e565b93506040860135614c8581614a1b565b9250606086013567ffffffffffffffff811115614ca0575f5ffd5b614cac88828901614c03565b969995985093965092949392505050565b5f5b83811015614cd7578181015183820152602001614cbf565b50505f910152565b5f8151808452614cf6816020860160208601614cbd565b601f01601f19169290920160200192915050565b602081525f611ad56020830184614cdf565b5f60208284031215614d2c575f5ffd5b8135611ad58161493e565b60ff81168114614928575f5ffd5b5f5f5f5f5f5f5f60e0888a031215614d5b575f5ffd5b8735614d6681614d37565b9650614d746020890161492b565b95506040880135614d848161493e565b9450614d926060890161492b565b93506080880135614da28161493e565b9699959850939692959460a0840135945060c09093013592915050565b5f82601f830112614dce575f5ffd5b8135614ddc6149e682614b24565b8082825260208201915060208360051b860101925085831115614dfd575f5ffd5b602085015b83811015614e23578035614e158161493e565b835260209283019201614e02565b5095945050505050565b5f82601f830112614e3c575f5ffd5b8135614e4a6149e682614b24565b8082825260208201915060208360051b860101925085831115614e6b575f5ffd5b602085015b83811015614e23578035614e8381614a1b565b835260209283019201614e70565b5f5f5f5f60808587031215614ea4575f5ffd5b843567ffffffffffffffff811115614eba575f5ffd5b8501601f81018713614eca575f5ffd5b8035614ed86149e682614b24565b8082825260208201915060208360051b850101925089831115614ef9575f5ffd5b6020840193505b82841015614f2257614f118461492b565b825260209384019390910190614f00565b9650505050602085013567ffffffffffffffff811115614f40575f5ffd5b614f4c87828801614dbf565b935050604085013567ffffffffffffffff811115614f68575f5ffd5b614f7487828801614dbf565b925050606085013567ffffffffffffffff811115614f90575f5ffd5b614f9c87828801614e2d565b91505092959194509250565b5f5f5f60608486031215614fba575f5ffd5b614fc38461492b565b92506020840135614fd38161493e565b91506040840135614fe381614a1b565b809150509250925092565b5f60208284031215614ffe575f5ffd5b5035919050565b80610400810183101561131e575f5ffd5b5f5f5f6104408486031215615029575f5ffd5b8335925061503a8560208601615005565b9150615049610420850161492b565b90509250925092565b5f5f5f5f60608587031215615065575f5ffd5b84356150708161493e565b935060208501359250604085013567ffffffffffffffff811115615092575f5ffd5b61509e87828801614c03565b95989497509550505050565b5f5f5f5f5f5f60a087890312156150bf575f5ffd5b6150c88761492b565b955060208701356150d88161493e565b94506040870135935060608701356150ef81614a1b565b9250608087013567ffffffffffffffff81111561510a575f5ffd5b61511689828a01614c03565b979a9699509497509295939492505050565b5f5f60408385031215615139575f5ffd5b82356151448161493e565b91506020830135614bf881614a1b565b5f5f60408385031215615165575f5ffd5b61516e8361492b565b915061517c6020840161492b565b90509250929050565b5f5f5f5f5f5f5f5f5f5f5f5f6109208d8f0312156151a1575f5ffd5b6151ab8e8e615005565b9b506151bb8e6104008f01615005565b9a506108008d013599506108208d013598506108408d013597506151e26108608e0161492b565b96506151f26108808e013561493e565b6108808d013595506152076108a08e0161492b565b94506108c08d01356152188161493e565b93506108e08d0135925067ffffffffffffffff6109008e0135111561523b575f5ffd5b61524c8e6109008f01358f01614c03565b81935080925050509295989b509295989b509295989b565b5f5f5f5f5f5f5f60c0888a03121561527a575f5ffd5b6152838861492b565b965060208801356152938161493e565b95506040880135945060608801356152aa8161493e565b935060808801356152ba81614a1b565b925060a088013567ffffffffffffffff8111156152d5575f5ffd5b6152e18a828b01614c03565b989b979a50959850939692959293505050565b5f5f83601f840112615304575f5ffd5b50813567ffffffffffffffff81111561531b575f5ffd5b6020830191508360208260051b8501011115614c41575f5ffd5b5f5f5f5f5f5f6080878903121561534a575f5ffd5b863567ffffffffffffffff811115615360575f5ffd5b61536c89828a016152f4565b909750955050602087013567ffffffffffffffff81111561538b575f5ffd5b61539789828a016152f4565b90955093505060408701356153ab8161493e565b915060608701356153bb8161493e565b809150509295509295509295565b5f5f5f5f5f5f60c087890312156153de575f5ffd5b6153e78761492b565b955060208701356153f78161493e565b94506154056040880161492b565b935060608701356154158161493e565b925060808701356154258161493e565b915060a087013567ffffffffffffffff811115615440575f5ffd5b61544c89828a016149c9565b9150509295509295509295565b5f5f5f5f610460858703121561546d575f5ffd5b8435935061547e8660208701615005565b925061548d610420860161492b565b939692955092936104400135925050565b600181811c908216806154b257607f821691505b6020821081036154d057634e487b7160e01b5f52602260045260245ffd5b50919050565b601f821115611a0e57805f5260205f20601f840160051c810160208510156154fb5750805b601f840160051c820191505b8181101561138d575f8155600101615507565b815167ffffffffffffffff8111156155345761553461495d565b61554881615542845461549e565b846154d6565b6020601f82116001811461557a575f83156155635750848201515b5f19600385901b1c1916600184901b17845561138d565b5f84815260208120601f198516915b828110156155a95787850151825560209485019460019092019101615589565b50848210156155c657868401515f19600387901b60f8161c191681555b50505050600190811b01905550565b5f602082840312156155e5575f5ffd5b8151611ad58161493e565b634e487b7160e01b5f52603260045260245ffd5b634e487b7160e01b5f52601160045260245ffd5b63ffffffff818116838216019081111561131e5761131e615604565b60e09290921b6001600160e01b031916825260601b6bffffffffffffffffffffffff1916600482015260180190565b5f6156706149e6846149a2565b9050828152838383011115615683575f5ffd5b611ad5836020830184614cbd565b5f82601f8301126156a0575f5ffd5b611ad583835160208501615663565b5f602082840312156156bf575f5ffd5b815167ffffffffffffffff8111156156d5575f5ffd5b613d5a84828501615691565b5f602082840312156156f1575f5ffd5b8151611ad581614d37565b606081525f61570e6060830186614cdf565b82810360208401526157208186614cdf565b91505060ff83166040830152949350505050565b5f60208284031215615744575f5ffd5b815167ffffffffffffffff81111561575a575f5ffd5b8201601f8101841361576a575f5ffd5b613d5a84825160208401615663565b808202811582820484141761131e5761131e615604565b8082018082111561131e5761131e615604565b818382375f9101908152919050565b5f82516157c3818460208701614cbd565b9190910192915050565b81835281816020850137505f828201602090810191909152601f909101601f19169091010190565b63ffffffff861681526001600160a01b03851660208201526001600160a01b0384166040820152608060608201525f6158326080830184866157cd565b979650505050505050565b5f6020828403121561584d575f5ffd5b5051919050565b8181038181111561131e5761131e615604565b60ff8916815263ffffffff881660208201526001600160a01b038716604082015263ffffffff861660608201526001600160a01b03851660808201528360a082015261010060c08201525f6158c0610100830185614cdf565b905063ffffffff831660e08301529998505050505050505050565b6001600160a01b038516815263ffffffff84166020820152606060408201525f6148996060830184866157cd565b5f5f5f6060848603121561591b575f5ffd5b835167ffffffffffffffff811115615931575f5ffd5b61593d86828701615691565b935050602084015167ffffffffffffffff811115615959575f5ffd5b61596586828701615691565b9250506040840151614fe381614d37565b60ff8a16815263ffffffff891660208201526001600160a01b038816604082015263ffffffff871660608201526001600160a01b03861660808201528460a082015261010060c08201525f6159d0610100830185876157cd565b905063ffffffff831660e08301529a9950505050505050505050565b5f5f858511156159fa575f5ffd5b83861115615a06575f5ffd5b5050820193919092039150565b80356001600160e01b03198116906004841015615a44576001600160e01b0319600485900360031b81901b82161691505b5092915050565b5f5f5f5f5f5f5f60e0888a031215615a61575f5ffd5b8735615a6c8161493e565b96506020880135615a7c8161493e565b955060408801359450606088013593506080880135614da281614d37565b5f5f5f5f5f5f5f5f610100898b031215615ab2575f5ffd5b8835615abd8161493e565b97506020890135615acd8161493e565b965060408901359550606089013594506080890135615aeb81614a1b565b935060a0890135615afb81614d37565b979a969950949793969295929450505060c08201359160e0013590565b5f60018201615b2957615b29615604565b5060010190565b5f60208284031215615b40575f5ffd5b8151611ad581614a1b565b6001815b6001841115615b8657808504811115615b6a57615b6a615604565b6001841615615b7857908102905b60019390931c928002615b4f565b935093915050565b5f82615b9c5750600161131e565b81615ba857505f61131e565b8160018114615bbe5760028114615bc857615be4565b600191505061131e565b60ff841115615bd957615bd9615604565b50506001821b61131e565b5060208310610133831016604e8410600b8410161715615c07575081810a61131e565b615c135f198484615b4b565b805f1904821115615c2657615c26615604565b029392505050565b5f611ad58383615b8e565b634e487b7160e01b5f52600160045260245ffdfea2646970667358221220ef3c4d4bed3c4506c8ac242144f1d59e782e0aaeb92df0651462ce3a07c0b2c264736f6c634300081c00336080604052348015600e575f5ffd5b50610fb38061001c5f395ff3fe608060405234801561000f575f5ffd5b5060043610610029575f3560e01c8063c514f24e1461002d575b5f5ffd5b61003561004b565b604051610042919061006a565b60405180910390f35b60405180610f000160405280610ec881526020016100b6610ec8913981565b602081525f82518060208401525f5b818110156100965760208186018101516040868401015201610079565b505f604082850101526040601f19601f8301168401019150509291505056fe60806040819052631d97f74d60e11b81523390633b2fee9a90608490602090600481865afa158015610033573d5f5f3e3d5ffd5b505050506040513d601f19601f820116820180604052508101906100579190610433565b604080515f80825260208201909252905061007382825f6100e2565b50506100dd336001600160a01b03166338b8fbbb6040518163ffffffff1660e01b8152600401602060405180830381865afa1580156100b4573d5f5f3e3d5ffd5b505050506040513d601f19601f820116820180604052508101906100d89190610433565b61010d565b6104c8565b6100eb8361017a565b5f825111806100f75750805b156101085761010683836101b9565b505b505050565b7f7e644d79422f17c01e4894b5f4f588d331ebfa28653d42ae832dc59e38c9798f61014c5f516020610e815f395f51905f52546001600160a01b031690565b604080516001600160a01b03928316815291841660208301520160405180910390a1610177816101e5565b50565b61018381610280565b6040516001600160a01b038216907fbc7cd75a20ee27fd9adebab32041f755214dbc6bffa90cc0225b39da2e5c2d3b905f90a250565b60606101de8383604051806060016040528060278152602001610ea160279139610314565b9392505050565b6001600160a01b03811661024f5760405162461bcd60e51b815260206004820152602660248201527f455243313936373a206e65772061646d696e20697320746865207a65726f206160448201526564647265737360d01b60648201526084015b60405180910390fd5b805f516020610e815f395f51905f525b80546001600160a01b0319166001600160a01b039290921691909117905550565b6001600160a01b0381163b6102ed5760405162461bcd60e51b815260206004820152602d60248201527f455243313936373a206e657720696d706c656d656e746174696f6e206973206e60448201526c1bdd08184818dbdb9d1c9858dd609a1b6064820152608401610246565b807f360894a13ba1a3210667c828492db98dca3e2076cc3735a920a3ca505d382bbc61025f565b60605f5f856001600160a01b031685604051610330919061047b565b5f60405180830381855af49150503d805f8114610368576040519150601f19603f3d011682016040523d82523d5f602084013e61036d565b606091505b50909250905061037f86838387610389565b9695505050505050565b606083156103f75782515f036103f0576001600160a01b0385163b6103f05760405162461bcd60e51b815260206004820152601d60248201527f416464726573733a2063616c6c20746f206e6f6e2d636f6e74726163740000006044820152606401610246565b5081610401565b6104018383610409565b949350505050565b8151156104195781518083602001fd5b8060405162461bcd60e51b81526004016102469190610496565b5f60208284031215610443575f5ffd5b81516001600160a01b03811681146101de575f5ffd5b5f5b8381101561047357818101518382015260200161045b565b50505f910152565b5f825161048c818460208701610459565b9190910192915050565b602081525f82518060208401526104b4816040850160208701610459565b601f01601f19169190910160400192915050565b6109ac806104d55f395ff3fe60806040526004361061005d575f3560e01c80635c60da1b116100425780635c60da1b146100a65780638f283970146100e3578063f851a440146101025761006c565b80633659cfe6146100745780634f1ef286146100935761006c565b3661006c5761006a610116565b005b61006a610116565b34801561007f575f5ffd5b5061006a61008e366004610854565b610130565b61006a6100a136600461086d565b610178565b3480156100b1575f5ffd5b506100ba6101eb565b60405173ffffffffffffffffffffffffffffffffffffffff909116815260200160405180910390f35b3480156100ee575f5ffd5b5061006a6100fd366004610854565b610228565b34801561010d575f5ffd5b506100ba610255565b61011e610282565b61012e610129610359565b610362565b565b610138610380565b73ffffffffffffffffffffffffffffffffffffffff1633036101705761016d8160405180602001604052805f8152505f6103bf565b50565b61016d610116565b610180610380565b73ffffffffffffffffffffffffffffffffffffffff1633036101e3576101de8383838080601f0160208091040260200160405190810160405280939291908181526020018383808284375f92019190915250600192506103bf915050565b505050565b6101de610116565b5f6101f4610380565b73ffffffffffffffffffffffffffffffffffffffff16330361021d57610218610359565b905090565b610225610116565b90565b610230610380565b73ffffffffffffffffffffffffffffffffffffffff1633036101705761016d816103e9565b5f61025e610380565b73ffffffffffffffffffffffffffffffffffffffff16330361021d57610218610380565b61028a610380565b73ffffffffffffffffffffffffffffffffffffffff16330361012e576040517f08c379a000000000000000000000000000000000000000000000000000000000815260206004820152604260248201527f5472616e73706172656e745570677261646561626c6550726f78793a2061646d60448201527f696e2063616e6e6f742066616c6c6261636b20746f2070726f7879207461726760648201527f6574000000000000000000000000000000000000000000000000000000000000608482015260a4015b60405180910390fd5b5f61021861044a565b365f5f375f5f365f845af43d5f5f3e80801561037c573d5ff35b3d5ffd5b5f7fb53127684a568b3173ae13b9f8a6016e243e63b6e8ee1178d6a717850b5d61035b5473ffffffffffffffffffffffffffffffffffffffff16919050565b6103c883610471565b5f825111806103d45750805b156101de576103e383836104bd565b50505050565b7f7e644d79422f17c01e4894b5f4f588d331ebfa28653d42ae832dc59e38c9798f610412610380565b6040805173ffffffffffffffffffffffffffffffffffffffff928316815291841660208301520160405180910390a161016d816104e9565b5f7f360894a13ba1a3210667c828492db98dca3e2076cc3735a920a3ca505d382bbc6103a3565b61047a816105f5565b60405173ffffffffffffffffffffffffffffffffffffffff8216907fbc7cd75a20ee27fd9adebab32041f755214dbc6bffa90cc0225b39da2e5c2d3b905f90a250565b60606104e28383604051806060016040528060278152602001610979602791396106c0565b9392505050565b73ffffffffffffffffffffffffffffffffffffffff811661058c576040517f08c379a000000000000000000000000000000000000000000000000000000000815260206004820152602660248201527f455243313936373a206e65772061646d696e20697320746865207a65726f206160448201527f64647265737300000000000000000000000000000000000000000000000000006064820152608401610350565b807fb53127684a568b3173ae13b9f8a6016e243e63b6e8ee1178d6a717850b5d61035b80547fffffffffffffffffffffffff00000000000000000000000000000000000000001673ffffffffffffffffffffffffffffffffffffffff9290921691909117905550565b73ffffffffffffffffffffffffffffffffffffffff81163b610699576040517f08c379a000000000000000000000000000000000000000000000000000000000815260206004820152602d60248201527f455243313936373a206e657720696d706c656d656e746174696f6e206973206e60448201527f6f74206120636f6e7472616374000000000000000000000000000000000000006064820152608401610350565b807f360894a13ba1a3210667c828492db98dca3e2076cc3735a920a3ca505d382bbc6105af565b60605f5f8573ffffffffffffffffffffffffffffffffffffffff16856040516106e9919061090d565b5f60405180830381855af49150503d805f8114610721576040519150601f19603f3d011682016040523d82523d5f602084013e610726565b606091505b509150915061073786838387610741565b9695505050505050565b606083156107d65782515f036107cf5773ffffffffffffffffffffffffffffffffffffffff85163b6107cf576040517f08c379a000000000000000000000000000000000000000000000000000000000815260206004820152601d60248201527f416464726573733a2063616c6c20746f206e6f6e2d636f6e74726163740000006044820152606401610350565b50816107e0565b6107e083836107e8565b949350505050565b8151156107f85781518083602001fd5b806040517f08c379a00000000000000000000000000000000000000000000000000000000081526004016103509190610928565b803573ffffffffffffffffffffffffffffffffffffffff8116811461084f575f5ffd5b919050565b5f60208284031215610864575f5ffd5b6104e28261082c565b5f5f5f6040848603121561087f575f5ffd5b6108888461082c565b9250602084013567ffffffffffffffff8111156108a3575f5ffd5b8401601f810186136108b3575f5ffd5b803567ffffffffffffffff8111156108c9575f5ffd5b8660208284010111156108da575f5ffd5b939660209190910195509293505050565b5f5b838110156109055781810151838201526020016108ed565b50505f910152565b5f825161091e8184602087016108eb565b9190910192915050565b602081525f82518060208401526109468160408501602087016108eb565b601f017fffffffffffffffffffffffffffffffffffffffffffffffffffffffffffffffe016919091016040019291505056fe416464726573733a206c6f772d6c6576656c2064656c65676174652063616c6c206661696c6564a164736f6c634300081c000ab53127684a568b3173ae13b9f8a6016e243e63b6e8ee1178d6a717850b5d6103416464726573733a206c6f772d6c6576656c2064656c65676174652063616c6c206661696c6564a2646970667358221220f9f921f910b22a2a14f9dce017cc4be5206c1f1f3690adcea59699078c36984a64736f6c634300081c00336080604052348015600e575f5ffd5b5060156019565b60c9565b7ff0c57e16840df040f15088dc2f81fe391c3923bec73e23a9662efc9c229c6a00805468010000000000000000900460ff161560685760405163f92ee8a960e01b815260040160405180910390fd5b80546001600160401b039081161460c65780546001600160401b0319166001600160401b0390811782556040519081527fc7f505b2f371ae2175ee4913f4499e1f2633a7b5936321eed1cdaeb6115181d29060200160405180910390a15b50565b61163e806100d65f395ff3fe608060405234801561000f575f5ffd5b5060043610610106575f3560e01c806370a082311161009e5780639dc29fac1161006e5780639dc29fac1461023c578063a3c573eb1461024f578063a9059cbb14610297578063d505accf146102aa578063dd62ed3e146102bd575f5ffd5b806370a08231146101f35780637ecebe001461020657806384b0196e1461021957806395d89b4114610234575f5ffd5b806323b872dd116100d957806323b872dd14610191578063313ce567146101a45780633644e515146101d857806340c10f19146101e0575f5ffd5b806306fdde031461010a578063095ea7b3146101285780631624f6c61461014b57806318160ddd14610160575b5f5ffd5b610112610314565b60405161011f919061115f565b60405180910390f35b61013b610136366004611193565b6103b9565b604051901515815260200161011f565b61015e61015936600461126a565b6103d2565b005b7f52c63247e1f47db19d5ce0460030c497f067ca4cebf71ba98eeadabe20bace02545b60405190815260200161011f565b61013b61019f3660046112de565b61054a565b7f863b064fe9383d75d38f584f64f1aaba4520e9ebc98515fa15bdeae8c4274d005460405160ff909116815260200161011f565b61018361056d565b61015e6101ee366004611193565b61057b565b610183610201366004611318565b6105de565b610183610214366004611318565b61060e565b610221610618565b60405161011f9796959493929190611331565b6101126106ce565b61015e61024a366004611193565b61070c565b7f863b064fe9383d75d38f584f64f1aaba4520e9ebc98515fa15bdeae8c4274d005461010090046001600160a01b03166040516001600160a01b03909116815260200161011f565b61013b6102a5366004611193565b61076a565b61015e6102b83660046113c7565b610777565b6101836102cb36600461142d565b6001600160a01b039182165f9081527f52c63247e1f47db19d5ce0460030c497f067ca4cebf71ba98eeadabe20bace016020908152604080832093909416825291909152205490565b60605f5f5160206115c95f395f51905f525b90508060030180546103379061145e565b80601f01602080910402602001604051908101604052809291908181526020018280546103639061145e565b80156103ae5780601f10610385576101008083540402835291602001916103ae565b820191905f5260205f20905b81548152906001019060200180831161039157829003601f168201915b505050505091505090565b5f336103c68185856108cc565b60019150505b92915050565b7ff0c57e16840df040f15088dc2f81fe391c3923bec73e23a9662efc9c229c6a00805468010000000000000000810460ff16159067ffffffffffffffff165f8115801561041c5750825b90505f8267ffffffffffffffff1660011480156104385750303b155b905081158015610446575080155b156104645760405163f92ee8a960e01b815260040160405180910390fd5b845467ffffffffffffffff19166001178555831561049857845468ff00000000000000001916680100000000000000001785555b6104a288886108d9565b6104ab886108ef565b7f863b064fe9383d75d38f584f64f1aaba4520e9ebc98515fa15bdeae8c4274d00805460ff881674ffffffffffffffffffffffffffffffffffffffffff19909116176101003302179055831561054057845468ff000000000000000019168555604051600181527fc7f505b2f371ae2175ee4913f4499e1f2633a7b5936321eed1cdaeb6115181d29060200160405180910390a15b5050505050505050565b5f3361055785828561091d565b6105628585856109b7565b506001949350505050565b5f610576610a14565b905090565b5f7f863b064fe9383d75d38f584f64f1aaba4520e9ebc98515fa15bdeae8c4274d00805490915061010090046001600160a01b031633146105cf576040516338da3b1560e01b815260040160405180910390fd5b6105d98383610a1d565b505050565b5f805f5160206115c95f395f51905f525b6001600160a01b039093165f9081526020939093525050604090205490565b5f6103cc82610a51565b5f60608082808083815f5160206115e95f395f51905f52805490915015801561064357506001810154155b6106945760405162461bcd60e51b815260206004820152601560248201527f4549503731323a20556e696e697469616c697a6564000000000000000000000060448201526064015b60405180910390fd5b61069c610a5b565b6106a4610a99565b604080515f80825260208201909252600f60f81b9c939b5091995046985030975095509350915050565b7f52c63247e1f47db19d5ce0460030c497f067ca4cebf71ba98eeadabe20bace0480546060915f5160206115c95f395f51905f52916103379061145e565b5f7f863b064fe9383d75d38f584f64f1aaba4520e9ebc98515fa15bdeae8c4274d00805490915061010090046001600160a01b03163314610760576040516338da3b1560e01b815260040160405180910390fd5b6105d98383610aaf565b5f336103c68185856109b7565b8342111561079b5760405163313c898160e11b81526004810185905260240161068b565b5f7f6e71edae12b1b97f4d1f60370fef10105fa2faae0126114a169c64845d6126c98888886108058c6001600160a01b03165f9081527f5ab42ced628888259c08ac98db1eb0cf702fc1501344311d8b100cd1bfe4bb006020526040902080546001810190915590565b6040805160208101969096526001600160a01b0394851690860152929091166060840152608083015260a082015260c0810186905260e0016040516020818303038152906040528051906020012090505f61085f82610ae3565b90505f61086e82878787610b0f565b9050896001600160a01b0316816001600160a01b0316146108b5576040516325c0072360e11b81526001600160a01b0380831660048301528b16602482015260440161068b565b6108c08a8a8a6108cc565b50505050505050505050565b6105d98383836001610b3b565b6108e1610c1f565b6108eb8282610c6f565b5050565b6108f7610c1f565b61091a81604051806040016040528060018152602001603160f81b815250610cbf565b50565b6001600160a01b038381165f9081527f52c63247e1f47db19d5ce0460030c497f067ca4cebf71ba98eeadabe20bace0160209081526040808320938616835292905220545f1981146109b157818110156109a357604051637dc7a0d960e11b81526001600160a01b0384166004820152602481018290526044810183905260640161068b565b6109b184848484035f610b3b565b50505050565b6001600160a01b0383166109e057604051634b637e8f60e11b81525f600482015260240161068b565b6001600160a01b038216610a095760405163ec442f0560e01b81525f600482015260240161068b565b6105d9838383610d1e565b5f610576610e57565b6001600160a01b038216610a465760405163ec442f0560e01b81525f600482015260240161068b565b6108eb5f8383610d1e565b5f6103cc82610eca565b7fa16a46d94261c7517cc8ff89f61c0ce93598e3c849801011dee649a6a557d10280546060915f5160206115e95f395f51905f52916103379061145e565b60605f5f5160206115e95f395f51905f52610326565b6001600160a01b038216610ad857604051634b637e8f60e11b81525f600482015260240161068b565b6108eb825f83610d1e565b5f6103cc610aef610a14565b8360405161190160f01b8152600281019290925260228201526042902090565b5f5f5f5f610b1f88888888610ef2565b925092509250610b2f8282610fba565b50909695505050505050565b5f5160206115c95f395f51905f526001600160a01b038516610b725760405163e602df0560e01b81525f600482015260240161068b565b6001600160a01b038416610b9b57604051634a1406b160e11b81525f600482015260240161068b565b6001600160a01b038086165f90815260018301602090815260408083209388168352929052208390558115610c1857836001600160a01b0316856001600160a01b03167f8c5be1e5ebec7d5bd14f71427d1e84f3dd0314c0f7b2291e5b200ac8c7c3b92585604051610c0f91815260200190565b60405180910390a35b5050505050565b7ff0c57e16840df040f15088dc2f81fe391c3923bec73e23a9662efc9c229c6a005468010000000000000000900460ff16610c6d57604051631afcd79f60e31b815260040160405180910390fd5b565b610c77610c1f565b5f5160206115c95f395f51905f527f52c63247e1f47db19d5ce0460030c497f067ca4cebf71ba98eeadabe20bace03610cb084826114da565b50600481016109b183826114da565b610cc7610c1f565b5f5160206115e95f395f51905f527fa16a46d94261c7517cc8ff89f61c0ce93598e3c849801011dee649a6a557d102610d0084826114da565b5060038101610d0f83826114da565b505f8082556001909101555050565b5f5160206115c95f395f51905f526001600160a01b038416610d585781816002015f828254610d4d9190611595565b90915550610dc89050565b6001600160a01b0384165f9081526020829052604090205482811015610daa5760405163391434e360e21b81526001600160a01b0386166004820152602481018290526044810184905260640161068b565b6001600160a01b0385165f9081526020839052604090209083900390555b6001600160a01b038316610de6576002810180548390039055610e04565b6001600160a01b0383165f9081526020829052604090208054830190555b826001600160a01b0316846001600160a01b03167fddf252ad1be2c89b69c2b068fc378daa952ba7f163c4a11628f55a4df523b3ef84604051610e4991815260200190565b60405180910390a350505050565b5f7f8b73c3c69bb8fe3d512ecc4cf759cc79239f7b179b0ffacaa9a75d522b39400f610e81611072565b610e896110da565b60408051602081019490945283019190915260608201524660808201523060a082015260c00160405160208183030381529060405280519060200120905090565b5f807f5ab42ced628888259c08ac98db1eb0cf702fc1501344311d8b100cd1bfe4bb006105ef565b5f80807f7fffffffffffffffffffffffffffffff5d576e7357a4501ddfe92f46681b20a0841115610f2b57505f91506003905082610fb0565b604080515f808252602082018084528a905260ff891692820192909252606081018790526080810186905260019060a0016020604051602081039080840390855afa158015610f7c573d5f5f3e3d5ffd5b5050604051601f1901519150506001600160a01b038116610fa757505f925060019150829050610fb0565b92505f91508190505b9450945094915050565b5f826003811115610fcd57610fcd6115b4565b03610fd6575050565b6001826003811115610fea57610fea6115b4565b036110085760405163f645eedf60e01b815260040160405180910390fd5b600282600381111561101c5761101c6115b4565b0361103d5760405163fce698f760e01b81526004810182905260240161068b565b6003826003811115611051576110516115b4565b036108eb576040516335e2f38360e21b81526004810182905260240161068b565b5f5f5160206115e95f395f51905f528161108a610a5b565b8051909150156110a257805160209091012092915050565b815480156110b1579392505050565b7fc5d2460186f7233c927e7db2dcc703c0e500b653ca82273b7bfad8045d85a470935050505090565b5f5f5160206115e95f395f51905f52816110f2610a99565b80519091501561110a57805160209091012092915050565b600182015480156110b1579392505050565b5f81518084525f5b8181101561114057602081850181015186830182015201611124565b505f602082860101526020601f19601f83011685010191505092915050565b602081525f611171602083018461111c565b9392505050565b80356001600160a01b038116811461118e575f5ffd5b919050565b5f5f604083850312156111a4575f5ffd5b6111ad83611178565b946020939093013593505050565b634e487b7160e01b5f52604160045260245ffd5b5f82601f8301126111de575f5ffd5b813567ffffffffffffffff8111156111f8576111f86111bb565b604051601f8201601f19908116603f0116810167ffffffffffffffff81118282101715611227576112276111bb565b60405281815283820160200185101561123e575f5ffd5b816020850160208301375f918101602001919091529392505050565b803560ff8116811461118e575f5ffd5b5f5f5f6060848603121561127c575f5ffd5b833567ffffffffffffffff811115611292575f5ffd5b61129e868287016111cf565b935050602084013567ffffffffffffffff8111156112ba575f5ffd5b6112c6868287016111cf565b9250506112d56040850161125a565b90509250925092565b5f5f5f606084860312156112f0575f5ffd5b6112f984611178565b925061130760208501611178565b929592945050506040919091013590565b5f60208284031215611328575f5ffd5b61117182611178565b60ff60f81b8816815260e060208201525f61134f60e083018961111c565b8281036040840152611361818961111c565b606084018890526001600160a01b038716608085015260a0840186905283810360c0850152845180825260208087019350909101905f5b818110156113b6578351835260209384019390920191600101611398565b50909b9a5050505050505050505050565b5f5f5f5f5f5f5f60e0888a0312156113dd575f5ffd5b6113e688611178565b96506113f460208901611178565b955060408801359450606088013593506114106080890161125a565b9699959850939692959460a0840135945060c09093013592915050565b5f5f6040838503121561143e575f5ffd5b61144783611178565b915061145560208401611178565b90509250929050565b600181811c9082168061147257607f821691505b60208210810361149057634e487b7160e01b5f52602260045260245ffd5b50919050565b601f8211156105d957805f5260205f20601f840160051c810160208510156114bb5750805b601f840160051c820191505b81811015610c18575f81556001016114c7565b815167ffffffffffffffff8111156114f4576114f46111bb565b61150881611502845461145e565b84611496565b6020601f82116001811461153a575f83156115235750848201515b5f19600385901b1c1916600184901b178455610c18565b5f84815260208120601f198516915b828110156115695787850151825560209485019460019092019101611549565b508482101561158657868401515f19600387901b60f8161c191681555b50505050600190811b01905550565b808201808211156103cc57634e487b7160e01b5f52601160045260245ffd5b634e487b7160e01b5f52602160045260245ffdfe52c63247e1f47db19d5ce0460030c497f067ca4cebf71ba98eeadabe20bace00a16a46d94261c7517cc8ff89f61c0ce93598e3c849801011dee649a6a557d100a2646970667358221220f0e100f498b6f41fbf597025b81d217623a1e4b7d8ee5bf92572b87e86172a6264736f6c634300081c0033",
  "linkReferences": {},
  "deployedLinkReferences": {}
}